:020000040800F2
:1000000008210024810300085BA50008C1790008CD
:1000100059A50008D5120008A1BA00080000000088
:100020000000000000000000000000007FAA00089F
:100030006918000800000000A1A5000881AB0008B5
:100040009B0300089B0300089B0300089B03000818
:100050009B0300089B0300089B0300089B03000808
:100060009B030008911800089B0300082D1300084B
:100070003913000845130008511300085D130008E8
:1000800069130008751300089B0300088519000810
:10009000911900089B0300089B0300089B030008BC
:1000A0009B0300086DAD00089B0300089B0300083C
:1000B0009B0300089B03000879AD00089B03000820
:1000C0009B0300089B0300089B03000825A8000869
:1000D0009B03000871BA00087DBA000889BA0008BD
:1000E0009B0300089B030008000000009B0300081E
:1000F0009B0300089B0300089B0300088113000872
:100100009B0300089B0300089B0300089B03000857
:100110005DB2000869B200089B0300089B03000859
:100120008D13000899130008A5130008B1130008E7
:10013000BD1300089B0300089B0300089B030008F5
:1001400000000000000000000000000000000000AF
:10015000C91300089B0300089B03000895BA000818
:100160009B0300089B0300089B0300089B030008F7
:100170009B0300089B0300089B0300089B030008E7
:100180009B0300089B03000875B200089B0300084E
:100190009B0300089B0300089B0300089B030008C7
:1001A0009B0300089B0300089B0300089B030008B7
:1001B0009B0300089B0300089B0300089B030008A7
:1001C0009B0300089B0300089B0300089B03000897
:1001D0009B0300089B0300089B0300089B03000887
:1001E0009B0300089B0300089B0300089B03000877
:1001F0009B0300089B0300089B0300089B03000867
:100200009B0300089B0300089B0300089B03000856
:100210003DAD00089B0300089B0300089B030008FA
:100220009B0300089B0300089B03000800000000DC
:100230009B0300089B030008000000009B030008CC
:100240009B0300089B0300089B0300089B03000816
:100250009B0300089B0300089B0300089B03000806
:100260009B0300089B0300089B0300089B030008F6
:100270009B0300089B0300089B030008000000008C
:100280009B0300089B0300089B030008000000007C
:10029000000000009B03000800F002F800F060F886
:1002A0000AA090E8000C82448344AAF10107DA45D1
:1002B00001D100F055F8AFF2090EBAE80F0013F0C3
:1002C000010F18BFFB1A43F00103184728D00000A4
:1002D00048D000000A444FF0000C10F8013B13F026
:1002E000070408BF10F8014B1D1108BF10F8015B8F
:1002F000641E05D010F8016B641E01F8016BF9D182
:1003000013F0080F1EBF10F8014BAD1C0C1B09D1D8
:100310006D1E58BF01F801CBFAD505E014F8016B4A
:1003200001F8016B6D1EF9D59142D6D370470000DC
:100330000023002400250026103A28BF78C1FBD8EE
:10034000520728BF30C148BF0B6070471FB50CF083
:1003500005FB9DE8030000F0CFF91FBD10B510BDEF
:1003600000F05CFA1146FFF7F1FF0CF0AFFA00F075
:100370007AFA03B4FFF7F2FF03BC00F0ABFA000017
:100380000948804709480047FEE7FEE7FEE7FEE729
:10039000FEE7FEE7FEE7FEE7FEE7FEE70448054965
:1003A000054A064B7047000061AC0008990200083E
:1003B0000815002408210024081D0024081D00241D
:1003C00070B5064600F07CF9056806F10B0020F0D8
:1003D0000704B4429CBF002070BD2B466A68BAB1C6
:1003E0001068A04210D304F1080188423CBF506855
:1003F000586007D35168101941601168091B0160EA
:1004000058601460101D70BD13465268002AE7D171
:100410002146284600F05CF90028DED170BD70B599
:100420000D460646041F00F04BF9D0F800C0C5B1D8
:10043000E6B105F10B0020F00703AB423CBF002002
:1004400070BD2068984238BFDCF8042013D3C11A6D
:1004500008292FD3E01840F8041B236000F082F92C
:1004600028E0304600F07EF9002070BD2846BDE847
:100470007040FFF7A5BF002A18BFA2423CBF9446B8
:100480005268F8D30119914216D111680844984274
:1004900012D3C11A08293CBF2060506808D35168A4
:1004A000E0184160216812681144C91A0160236094
:1004B000CCF80400201D70BD181FFFF781FF050058
:1004C00007D021680A1F211D00F07CF8201D00F0D4
:1004D00049F9284670BD53EA020C00F069802DE905
:1004E000F04B4FF00006002B1FBFB3FA83F503FA61
:1004F00005F424FA05F65E4012BF1643B2FA82F5FF
:1005000002FA05F4C5F120051EBF22FA05FC44EAF3
:100510000C04203556EA044C4FEA144418BF641CFE
:100520004FF000084FF00009904271EB030C39D3F3
:10053000002919BFB1FA81F701FA07F6B0FA80F77E
:1005400000FA07F6C7F120071EBF20FA07FC46EAAB
:100550000C062037B6FBF4FCA7EB0507103F07F0AD
:100560001F0BCBF120060CFA0BFB2CFA06F644BF4E
:10057000B3460026202FA4BF5E464FF0000B5BEA77
:10058000060C08BF4FF0010B19EB0B09ABFB027C0B
:1005900048EB0608C01B06FB02CC0BFB03CC71EB3F
:1005A0000C01C1E70B46024641464846BDE8F08BC8
:1005B00013B54FF000004FF00001AFF30080BDE82D
:1005C0001C40704710B5203AC0F00B80B1E81850BD
:1005D000203AA0E81850B1E81850A0E81850BFF42D
:1005E000F5AF5FEA027C24BFB1E81850A0E81850CC
:1005F00044BF18C918C0BDE810405FEA827C24BF20
:1006000051F8043B40F8043B08BF7047D20728BFAD
:1006100031F8023B48BF11F8012B28BF20F8023BFC
:1006200048BF00F8012B70474FF000020429C0F0CA
:10063000128010F0030C00F01B80CCF1040CBCF114
:10064000020F18BF00F8012BA8BF20F8022BA1EB66
:100650000C0100F00DB85FEAC17C24BF00F8012B4B
:1006600000F8012B48BF00F8012B70474FF0000243
:1006700000B5134694469646203922BFA0E80C5098
:10068000A0E80C50B1F12001BFF4F7AF090728BF73
:10069000A0E80C5048BF0CC05DF804EB890028BFEF
:1006A00040F8042B08BF704748BF20F8022B11F018
:1006B000804F18BF00F8012B704770477047704794
:1006C00000487047B0140024704770477047704767
:1006D00038B504460A4600206946AFF3008000287A
:1006E00008BF38BD02460099204600F075F8012089
:1006F00038BD012000F08AB8F8B5AFF30080054698
:1007000000200C46102000BF0646A819A0420DD9B3
:10071000324669460020AFF30080070008BF00F0B2
:1007200075F80098A04218BF0546C419FFF7C8FF26
:1007300005600746F01D20F007004619284600F026
:100740000AF8B44208BFF8BDA21B31463868BDE8BC
:10075000F84000F041B800210160C0E90110704785
:100760001020704770B50446051FFFF7A9FF006809
:10077000002C14BF446870BD002C18BFAC423CBFB5
:1007800020466468F8D301680A18AA4218BF456079
:1007900003D12A6805461144016028684119A14225
:1007A0001CBF6C6070BD6168696021680844286086
:1007B00070BD10B500F00CF8006810BD10B504460F
:1007C00000F006F8046010BD00487047A81400242B
:1007D00000487047A8140024034640688C4600284F
:1007E00018BF88423CBF03464068F8D318681844D5
:1007F000884207D00CF1030020F00700001D411AC9
:10080000521A0146081D0A60FFF7ACBF10B500F090
:1008100039F8BDE8104000F02FB870477546FFF773
:10082000D3FFAE4605006946534620F007008546D3
:1008300018B020B5FFF7B2FDBDE820404FF000062C
:100840004FF000074FF000084FF0000B21F00701B8
:10085000AC46ACE8C009ACE8C009ACE8C009ACE8FB
:10086000C0098D46704710B50446AFF3008020469E
:10087000BDE81040FFF77DBD002801D000F02AB888
:100880007047000010B5012805D0002103A000F03A
:1008900027F8012010BD09A1F8E70000534947528D
:1008A000544D454D3A204F7574206F662068656140
:1008B00070206D656D6F7279000000003A20486508
:1008C0006170206D656D6F727920636F72727570E3
:1008D0007465640001491820ABBEFEE726000200E3
:1008E00070B505460C460A2000E06D1C00F011F8BA
:1008F00035B128780028F8D102E0641C00F009F82E
:1009000014B120780028F8D1BDE870400A20AFF378
:10091000008008B569468DF800000320ABBE08BD15
:1009200002480122818B806902F035BF74000024E7
:1009300002480022818B806902F02DBF74000024E0
:1009400070B52DED028BFFF7F3FF802000F032FC35
:10095000552000F02FFC552000F02CFC484C207056
:10096000FFF7DEFF9FED478AB0EE480A00F0B0FEC9
:10097000FFF7DEFF802000F01DFC552000F01AFC80
:10098000552000F017FC2070FFF7CAFFB0EE480AB0
:1009900000F09EFEFFF7CCFFB6217E2000F01CFC8D
:1009A000FFF7BEFF9FED380A00F092FEFFF7C0FF91
:1009B000802000F0FFFB552000F0FCFB552000F0EC
:1009C000F9FB2070FFF7ACFFB0EE480A00F080FEA4
:1009D000FFF7AEFF802000F0EDFB552000F0EAFBB2
:1009E000552000F0E7FB2070FFF79AFFB0EE480AB1
:1009F00000F06EFE20781E2803D0FF20BDEC028B95
:100A000070BD002060701E4DA835FFF791FF607823
:100A100000EB40004119285C497800F0DDFBFFF74E
:100A20007FFFB0EE480A00F053FEFFF781FF6078C9
:100A300000EB4000285C40F0800000F0BBFB55203C
:100A400000F0B8FB552000F0B5FB2070FFF768FF01
:100A5000B0EE480A00F03CFE6078237800EB4001DD
:100A600029444A789A4203D08978A2781143A17028
:100A7000401CC0B260700628C7D30020BEE700004B
:100A8000500000246F12833A0AD7A33D2DE9F04F9E
:100A900004462DED048B89B0002007900890DFED0F
:100AA000EE9AF0EE698AB0EE689A00F04FFEEB4ED7
:100AB00086ED050ADFF8A89304AFDFF8A8A30DF1CF
:100AC00004084FF07C5B00F041FED6ED050AE648D5
:100AD00030EE600A10EE101A814214DD9FEDE30A39
:100AE00084ED090A9FEDE20A84ED0A0A9FEDE10A0E
:100AF00084ED0B0A9FEDE00A84ED0C0A9FEDDF0AFE
:100B000084ED060A84E19FEDDE0A00F0E1FDC4ED0C
:100B10000C9AC4ED099AC4ED0A9AC4ED0B9A00250B
:100B2000F6E0FFF705FF922000F044FB06221220BA
:100B300007A900F021FBFFF7F3FE9DF81D009DF8CB
:100B40001C10000200B2084300EE100AD6ED030AA2
:100B5000B8EEC00A20EE200A84ED000A9DF81F00BE
:100B60009DF81E10000200B2084300EE900A96EDB8
:100B7000031AF8EEE00A60EE810AC4ED010A9DF85E
:100B800021009DF82010000200B2084301EE900AF7
:100B9000F8EEE11A21EE811A84ED021A20EE000A25
:100BA00000EEA00A01EE010A0BF05AFBB0EE408AFB
:100BB00094ED0C0A30EE080A84ED0C0A00F076F988
:100BC0000822002007A900F0D7FA00F065F99DF887
:100BD0001C000F2840D19DF81F009DF81E10000238
:100BE00000B2084300EE100AF8EEC00A96ED040ABF
:100BF00060EE800AC4ED030A94ED091A71EE200A32
:100C0000C4ED090A9DF821009DF82010000200B2F1
:100C1000084300EE900AF8EEE00A60EE800AC4EDA8
:100C2000040A94ED0A1A71EE200AC4ED0A0A9DF82E
:100C300023009DF82210000200B2084300EE900A43
:100C4000F8EEE00A20EE800A84ED050AD4ED0B0AE6
:100C500030EE800A84ED0B0A002D7DD0B4EEE88AD8
:100C6000F1EE10FA01DDF0EE488AB4EEC98AF1EE39
:100C700010FA01D2B0EE489A002004EB800191ED09
:100C8000030A07EB8001D1ED000AB4EEE00AF1EEB1
:100C900010FA01DD81ED000A08EB8001D1ED000AB8
:100CA000B4EEE00AF1EE10FA01D281ED000A401C28
:100CB000C0B20328E1D338EEC90A86ED060A002047
:100CC00007EB8001D1ED000A08EB800191ED001ADD
:100CD00009EB800170EEC10AC1ED000A401CC0B2F0
:100CE0000328EDD310EE100A584515DCD9F80000A2
:100CF000504511DCD9F8040050450DDCD9F8080046
:100D0000504509DC9FED5F0A00F0E2FC6D1CADB2BE
:100D1000F0888542FFF405AFF288D4ED0C0A00EEAE
:100D2000102AB8EE400A80EE801A84ED0C1A0020DA
:100D300000EE102A04EB8001B8EE400AD1ED090A5A
:100D400080EE801A81ED091A401CC0B20328EFD34F
:100D5000FFF7EEFDA22000E067E000F02BFA022290
:100D6000222007A900F008FAFFF7DAFD9DF81C0021
:100D70009DF81D10C00040EA5110B0F5806F02DBF5
:100D8000A0F5006000B200EE100AB4EE001AF8EE12
:100D9000C00AB3EE070A00EE810A84ED060AB088A5
:100DA000401CB080B06958453FF78DAE94ED0C0AF9
:100DB000DFED350A354930EE600AB0EEC00A10EEBC
:100DC000100A8842F0DCD9F800005045ECDCD9F874
:100DD00004005045E8DCD9F808005045E4DC94ED07
:100DE000090A2B49B0EEC00A10EE100A8842DBDC7B
:100DF00094ED0A0AB0EEC00A10EE100A8842D3DC65
:100E000094ED0B0AB0EEC00A10EE100A8842CBDC5B
:100E100094ED0C0ADFED1F0A80EE801A84ED081AAB
:100E200009B0BDEC048BBDE8F08FF0EE488AB0EE5F
:100E3000489A002004EB800191ED030A07EB800142
:100E400081ED000A08EB800181ED000A401CC0B270
:100E50000328EFD32FE7000000000000500000241B
:100E6000081100249A99193E00004041F2FA88BB0B
:100E70007779ABBBE1CB96B92C09244100008C42B9
:100E80000AD7A33B6F12033ACDCC1C416666663F7E
:100E90000AD7233CC3F51C4103480122B0F8401097
:100EA000C06B02F078BC00007400002403480022EC
:100EB000B0F84010C06B02F06EBC0000740000245B
:100EC00070B52DED028BFFF7F1FF4149002000F0D6
:100ED00065F9FFF7E1FF9FED3F8AB0EE480A00F0A9
:100EE000F7FBFFF7E3FF3A49002000F057F9FFF75F
:100EF000D3FFB0EE480A00F0EBFBFFF7D7FFB621B7
:100F0000142000F069F9FFF7C7FF9FED330A00F0E6
:100F1000DFFBFFF7CBFF2E49002000F03FF9FFF782
:100F2000BBFFB0EE480A00F0D3FBFFF7BFFF284934
:100F3000002000F033F9FFF7AFFFB0EE480A00F0F1
:100F4000C7FB234C20780F2803D0FF20BDEC028B79
:100F500070BD002060701E4DBA35FFF7A7FF6078A6
:100F600000EB40004119285C497800F035F9FFF7A3
:100F700093FFB0EE480A00F0ABFBFFF797FF6078F5
:100F8000134900EB4000285C00F008F9FFF784FFEC
:100F9000B0EE480A00F09CFB6078227800EB40013C
:100FA0002944497891420BD0401EC0B26070084974
:100FB00000EB4000A8310844A17880780843A07075
:100FC0006078401CC0B260700628C6D30020BDE720
:100FD000500000246F12833A0AD7A33D10B50F4981
:100FE00000220F4809F0F2FC0C4900220C48243181
:100FF00009F0ECFC094C0020243CA070FFF7A0FC99
:10100000A1780843A070FFF75BFFA1780843A070A8
:1010100004F16C00FFF73AFDA07810BD74000024C5
:101020001C04002470B50446FFF782FC922000F0F7
:10103000C1F850490622122000F09EF8FFF770FC1C
:101040004C4DA5F11C0668782978000200B20843CF
:1010500000EE100AD6ED030AB8EEC00A60EE200AD0
:1010600094ED080A60EE800AC4ED000AE878A978D9
:10107000000200B2084300EE900AB8EEE01AD6ED86
:10108000030A21EE201A21EE001A84ED011A687974
:101090002979000200B20843308101EE100AB8EE4F
:1010A000C11A61EE200A20EE800A84ED020AFFF7E1
:1010B000FDFE08222946002000F05EF8FFF7ECFE56
:1010C00028780F282FD1E878A978000200B20843C9
:1010D00000EE100AD4ED090AB8EEC01A96ED040A23
:1010E00051EE000AC4ED030A68792979000200B2C2
:1010F000084300EE900A94ED0A1AF8EEE00A10EEAA
:10110000801A84ED041AE879A979000200B2084334
:10111000308100EE900A94ED0B1AF8EEE00A10EE22
:10112000801A84ED051AFFF703FCA22000F042F8B4
:1011300010490222222000F01FF8FFF7F1FB287867
:101140006978C00040EA51103081B0F5806F02DB51
:10115000A0F500603081B6F90800B4EE001A00EE88
:10116000100AF8EEC00AB3EE070A00EE810A84ED19
:10117000070A70BD6C00002470B50D46144640F09F
:10118000800000F017F806E0552000F013F805F88D
:10119000010B641EE4B2002CF6D170BD10B50C46F4
:1011A00040F0800000F006F8552000F003F82070B1
:1011B00010BD000001B582B04FF47A700123009099
:1011C00001AA044802A9406805F009F89DF8040046
:1011D0000EBD0000C010002410B50C46FFF7EAFF5A
:1011E0002046BDE81040FFF7E5BFB6EE002A92EDBD
:1011F000020AB0EE421AD2ED030A00EE401AD0ED18
:10120000001AD0ED013A00EEE01A21EE213A92EDFB
:10121000011AD2ED001A61EE002A41EEE02A61EED9
:10122000200A41EE800A02EEA33A90ED020AF0EEA7
:10123000002A00EE803A23EE220A81ED000A92EDA8
:10124000010AD2ED021A92ED001AD2ED030A20EE45
:10125000213AD0ED003A90ED014A01EE203A23EE1A
:10126000233AF0EE423A40EE403A40EEE03A61EE88
:10127000A00A41EE400A03EE843A90ED020A00EE25
:10128000803A23EE220A81ED010AD2ED010AD2ED65
:10129000031A92ED020A92ED001A20EEA13A60EED6
:1012A000211AD0ED003A00EEE02A01EE403A41EE7C
:1012B000201A90ED011A00EE402A23EE233A90ED19
:1012C000020A01EE813A02EE003A23EE220A81ED93
:1012D000020A7047FEE790ED010AD1ED020A91ED96
:1012E000011A20EE200AD0ED020A00EEC10A82EDBA
:1012F000000A90ED020AD1ED000A91ED021A20EEEB
:10130000200AD0ED000A00EEC10A82ED010A90ED3C
:10131000000AD1ED010A91ED001A20EE200AD0ED6D
:10132000010A00EEC10A82ED020A7047014800F08E
:1013300033BF0000280D0024014800F02DBF00003D
:10134000A00D0024014800F027BF0000180E002463
:10135000014800F021BF0000900E0024014800F079
:101360001BBF0000080F0024014800F015BF00005B
:10137000800F0024014800F00FBF0000F80F002488
:10138000014800F009BF0000C00B0024014800F034
:1013900003BF0000D00A0024014800F0FDBE000099
:1013A000480B0024014800F0F7BE0000380C002470
:1013B000014800F0F1BE0000B00C0024014800F02C
:1013C000EBBE0000A4040024014800F0E5BE0000CC
:1013D0001C050024264A016891422CD0254A9142DE
:1013E00029D0254A914226D0244A914223D0244A2A
:1013F000914220D0234A91421DD0234A91421AD0D3
:10140000224A914217D0224A914214D0214A914255
:1014100011D0214A91420ED0204A91420BD0204A4D
:10142000914208D01F4A914205D01F4A914202D0F2
:101430001E4A914217D11E4BCAB2103AA3FB023288
:101440001209DFF870C002F007031CF80330C3650F
:10145000032A04D96FF30901091D816506E06FF3C2
:101460000901816502E021F0FF018165806D70470F
:101470001000024028000240400002405800024094
:101480007000024088000240A0000240B800024004
:101490001004024028040240400402405804024064
:1014A0007004024088040240A0040240B8040240D4
:1014B000ABAAAAAAA0CA000801680123DFF894C059
:1014C000CAB261451BD0DFF890C0614517D0DFF884
:1014D0008CC0614513D0DFF888C061450FD0DFF8BC
:1014E00084C061450BD0DFF880C0614507D0DFF8CC
:1014F0007CC0614503D0DFF878C0614511D1A2F10D
:1015000008011C4AA2FB012109091B4A02EB8102C6
:1015100002661A4A426601F01F0103FA01F1816670
:101520007047DFF85CC0103AACFB02C21209DFF86A
:1015300054C06144A82900D80832134901EB820144
:1015400001661249416602F01F0103FA01F181664A
:1015500070470000085402581C5402583054025876
:1015600044540258585402586C540258805402583B
:1015700094540258CDCCCCCC005802588058025814
:10158000ABAAAAAAF0FBFDBF0008024080080240F7
:1015900001794A1E072A28D8144B0168994214D0B1
:1015A000134B994211D0134B99420ED0124B9942D2
:1015B0000BD0124B994208D0114B994205D0114BD8
:1015C000994202D0104B994206D1104901EB820199
:1015D000C1660F49016705E00E4901EB8201C16652
:1015E0000D49016701219140416770470854025835
:1015F0001C5402583054025844540258585402584B
:101600006C5402588054025894540258005902589D
:10161000405902580009024040090240014600209A
:101620008B698A6A002B0FD0B3F5005F1DD08AB397
:10163000012A30D0022A2ED0032A04D1C96A11F01F
:10164000807F00D0012070471AB1012A07D0022AFA
:10165000F9D1C96A11F0807FF5D001207047C96ABD
:10166000B1F1C07FFAD1012070475AB1012A0BD0E5
:10167000022A07D0032AF7D1C96AB1F1C07FF3D19A
:101680000120704701207047C96A11F0807FFAD0AD
:1016900001207047FFE701207047000008B50A48A5
:1016A000017800290FD10121017008494A68009290
:1016B000009A43699A4202D20269521C0261496847
:1016C00041610021017008BD10000024001000E0FD
:1016D0000A4841680A4AD2ED010A4268521AF8EEF5
:1016E000601A01EE102AB8EE411A60EE211AB4EE2B
:1016F000E11AF1EE10FAF0D370470000001000E09C
:101700001000002400B52DED028B81B00D49496811
:1017100000910168009A511A00EE101A0A49F8EE79
:10172000400A91ED010AB8EE400A80EE808A0099E5
:101730000160FFF7B3FF01B0B0EE480ABDEC028BC9
:1017400000BD0000001000E01000002410B500F003
:1017500043F80C489FED0C1A90ED000A8188C08870
:1017600000EE901AB8EE400AF8EE600A00EE810A28
:1017700000EE900A9FED051AF8EE600A00EE810A6D
:1017800010BD0000400000246F12833ABD3786353B
:101790000D490A6842F080720A600C4900224A60D2
:1017A0000B6843F001030B6009494843094948604D
:1017B0004FF47A73B0FBF3F38B60054BB0FBF3F09F
:1017C000C8600A61FFF76ABFFCED00E0001000E0AE
:1017D00040420F00100000242DE9F84F20484068D7
:1017E0000090FFF75BFFDFF87C904FF0FF334FF086
:1017F000000A00985146D9F81020E2FB0301044684
:101800000D46C9E90E01D9F804B000232046294647
:101810005A46FEF760FE06460F463046A0FB0B21F7
:1018200007FB0B1106FB0A13A71A65EB030809F166
:10183000300426600023D9F8086041463846324615
:10184000FEF749FE80B2A0807043381A68EB0A01A7
:10185000D9F80C200023FEF73EFEE080BDE8F88FAB
:10186000001000E010000024704790ED000AD1ED58
:10187000000A91ED011A20EE200AD0ED010A00EED7
:10188000810AD0ED020A91ED021A00EE810A70473A
:10189000082001F072BEB6EE002A92ED020AB0EE08
:1018A000421AD2ED030A00EE401AD0ED001AD0ED34
:1018B000013A00EEE01A21EE213A92ED011AD2ED42
:1018C000001A61EE002A41EEA02A61EE200A41EEE4
:1018D000C00A02EEA33A90ED020AF0EE002A00EEF2
:1018E000803A23EE220A81ED000A92ED010AD2ED40
:1018F000021A92ED001AD2ED030A20EE213AD0ED41
:10190000003A90ED014A01EE603A23EE233AF0EE00
:10191000423A40EE403A40EEE03A61EEA00A41EE33
:10192000000A03EE843A90ED020A00EE803A23EEBC
:10193000220A81ED010AD2ED010AD2ED031A92EDDD
:10194000020A92ED001A20EEA13A60EE211AD0EDC3
:10195000003A00EEE02A01EE003A41EE601A90ED06
:10196000011A00EE402A23EE233A90ED020A01EE1E
:10197000813A02EE003A23EE220A81ED020A704714
:1019800072B6FEE7014801F0C5B9000088020024E4
:10199000014801F0BFB9000028030024416B026830
:1019A000D2F884306FF38F0343EA8103C2F88430A6
:1019B0000268D2F88430B0F838C023F47F0343EAD9
:1019C0000C43C2F88430826B11440268D2F888302C
:1019D0006FF38F0343EA8103C2F888300268D2F8BC
:1019E0008830B0F83CC023F4FE0343EA0C43C2F84D
:1019F0008830C26B01EB42010268D2F8A0306FF36D
:101A00008F0343EA8103C2F8A0300268D2F8A03005
:101A1000B0F840C023F4FE0343EA0C43C2F8A03000
:101A2000436C026C02FB03110268D2F8B0306FF312
:101A30008F0343EA8103C2F8B0300268D2F8B030B5
:101A4000B0F848C023F4FE0343EA0C43C2F8B030B8
:101A5000C36C826C02FB03110268D2F8AC306FF3E6
:101A60008F0343EA8103C2F8AC30436D026D02FB81
:101A700003110268D2F8F0306FF38F0343EA810359
:101A8000C2F8F0300268D2F8F030B0F858C023F451
:101A90007C1343EA0C43C2F8F030826D01EB420242
:101AA0000168D1F8C0306FF38F0343EA8202C1F8B6
:101AB000C0200168D1F8C020B0F85C3022F47C125C
:101AC00042EA0342C1F8C0200168D1F8C02090F872
:101AD000603022F07C5242EA0362C1F8C020416BC0
:101AE000294A02EB8101C166826B01EB8202026727
:101AF000C36B02EBC3024267D0F844C0036C03FB24
:101B00000CF302EB83028267D0F84CC0836C03FBBA
:101B10000CF302EB8302C267D0F854C0036D03FBE1
:101B20000CF302EB8302C0F88020836D02EBC30349
:101B3000C0F88430D0F85CC0826E0CFB02FC03EB72
:101B40008C03C0F88830D0F860C00CFB02F203EBC5
:101B50008202C0F890200D4B9A420AD9D0F89C100E
:101B600041F02001C0F89C10032180F8981001205A
:101B700070478A4206D900220A60091DD0F89030C9
:101B80008B42F9D80020704700AC0040FCD30040E5
:101B90002DE9F84F044601F00BFE00905CB194F87B
:101BA000350002280AD080206065002084F83400C7
:101BB0000120BDE8F88F0120BDE8F88FB649206804
:101BC000B64EB74F8842DFF8DC82DFF8DC92DFF8F0
:101BD000DCA2DFF8DCB226D0B04224D0B84222D05A
:101BE000404520D048451ED050451CD058451AD0FD
:101BF000B04A904217D0B04A904214D0AF4A9042B7
:101C000011D0AF4A90420ED0AE4A90420BD0AE4AAD
:101C1000904208D0AD4A904205D0AD4A904202D0E1
:101C2000AC4A90420AD1026822F01E02026020688B
:101C3000426922F080024261256804E0026822F0D5
:101C40000E0202602568206888423ED0B0423CD037
:101C5000B8423AD0404538D0484536D0504534D0C7
:101C6000584532D0934A90422FD0934A90422CD07C
:101C7000924A904229D0924A904226D0914A90426C
:101C800023D0914A904220D0904A90421DD0904A51
:101C900090421AD08F4A904217D08F4A904214D067
:101CA0008E4A904211D08E4A90420ED08D4A904278
:101CB0000BD08D4A904208D08C4A904205D08C4A75
:101CC000904202D08B4A904204D1206E026822F4E6
:101CD0008072026070492068884226D0B04224D0C9
:101CE000B84222D0404520D048451ED050451CD097
:101CF00058451AD06F49884217D06F49884214D08E
:101D00006E49884211D06E4988420ED06D49884292
:101D10000BD06D49884208D06C49884205D06C4987
:101D2000884202D06B49884204D1016821F0010148
:101D3000016003E0016821F001010160286810F0F2
:101D4000010F14D001F034FD0099401A05280AD97A
:101D500020206065032084F83500002084F83400DA
:101D60000120BDE8F88F286810F0010FEAD14A4A37
:101D700001212068904226D0B04224D0B84222D01F
:101D8000404520D048451ED050451CD058451AD05B
:101D9000484B984217D0484B984214D0474B984232
:101DA00011D0474B98420ED0464B98420BD0464B31
:101DB000984208D0454B984205D0454B984202D0F6
:101DC000444B98420AD1A06D4FF03F0C94F85C3020
:101DD00003F01F030CFA03F3836007E0A06D94F88F
:101DE0005C3003F01F0301FA03F343602068904264
:101DF0003ED0B0423CD0B8423AD0404538D04845B9
:101E000036D0504534D0584532D02A4A90422FD04F
:101E1000294A90422CD0294A904229D0284A9042FF
:101E200026D0284A904223D0274A904220D0274AE1
:101E300090421DD0264A90421AD0264A904217D08E
:101E4000254A904214D0254A904211D0244A90420B
:101E50000ED0244A90420BD0234A904208D0234A05
:101E6000904205D0224A904202D0224A90420BD1A1
:101E7000626EA06E5060E06E30B1026822F4807233
:101E80000260226F606F506084F83510002084F883
:101E90003400BDE8F88F0000100002402800024026
:101EA000400002405800024070000240880002409A
:101EB000A0000240B8000240100402402804024082
:101EC000400402405804024070040240880402406A
:101ED000A0040240B8040240085402581C5402589E
:101EE0003054025844540258585402586C54025802
:101EF00080540258945402582DE9F05F002808D00D
:101F000090F83510022907D0802141650120BDE8F5
:101F1000F09F0120BDE8F09FDFF81CE20168874BCD
:101F2000DFF81CC27145874C874D884E884FDFF81B
:101F30002482DFF82492DFF824A2DFF824B2894A51
:101F400025D0994223D0614521D0A1421FD0A9427A
:101F50001DD0B1421BD0B94219D0DFF80CE2714557
:101F600015D0DFF808E2714511D0DFF804E27145C1
:101F70000DD041450BD0494509D0DFF8F8E1714556
:101F800005D0514503D0594501D0914232D14FF08F
:101F9000040E80F835E06848814221D099421FD074
:101FA00061451DD0A1421BD0A94219D0B14217D022
:101FB000B94215D06C48814212D06C4881420FD092
:101FC0006B4881420CD041450AD0494508D0694848
:101FD000814205D0514503D0594501D0914204D1E9
:101FE000086820F001000860A3E0086820F0010004
:101FF00008609EE0D1F800E02EF00E0EC1F800E07F
:10200000DFF834E10168714525D0994223D061455C
:1020100021D0A1421FD0A9421DD0B1421BD0B9424C
:1020200019D0DFF844E1714515D0DFF840E1714582
:1020300011D0DFF83CE171450DD041450BD0494549
:1020400009D0DFF830E1714505D0514503D059453D
:1020500001D0914206D1D1F800E02EF0010EC1F876
:1020600000E005E0D1F800E02EF0010EC1F800E03C
:10207000DFF8C4E00168714539D0994237D0614535
:1020800035D0A14233D0A94231D0B1422FD0B9428C
:102090002DD0354B99422AD0344B994227D0344B1E
:1020A000994224D0414522D0494520D0314B994214
:1020B0001DD051451BD0594519D0914217D02E4AF9
:1020C000914214D02D4A914211D02D4A91420ED006
:1020D0002C4A91420BD02C4A914208D02B4A914273
:1020E00005D02B4A914202D02A4A914218D1016E62
:1020F0000A6822F480720A60816D90F85C2002F018
:102100001F0301229A404A60426E816E5160C16E87
:1021100031B10A6822F480720A60026F416F516027
:10212000012180F83510002180F83410016D01B1D3
:1021300088470020BDE8F09F1000024028000240C0
:1021400040000240580002407000024088000240F7
:10215000A0000240400402405804024088040240AB
:10216000A0040240B8040240B8000240100402403B
:102170002804024070040240085402581C540258BB
:102180003054025844540258585402586C5402585F
:1021900080540258945402582DE9F04F83B00446FD
:1021A000002002904FF41651FD480068B0FBF1F09A
:1021B0000190A56D2E682968FA4F2068DFF8E8A322
:1021C000DFF8E8B3B842DFF8E883DFF8E8932DD012
:1021D000524690422AD05A46904227D0404525D0B8
:1021E000484523D0F44A904220D0F44A90421DD072
:1021F000F34A90421AD0F34A904217D0DFF8C8C38E
:10220000604513D0F14A904210D0DFF8C4E3704526
:102210000CD0F04A904209D0EF4A904206D0EF4AE3
:10222000904203D0EE4B984240F0408294F85C100C
:10223000082201F01F0102FA01F1314241D0B842F7
:1022400028D0504526D0584524D0404522D0484576
:1022500020D0D94988421DD0D84988421AD0D849BF
:10226000884217D0D749884214D0D749884211D024
:10227000D64988420ED0D64988420BD0D5498842EB
:1022800008D0D549884205D0D449884202D0D449E3
:10229000884203D1016801F0040102E0016801F005
:1022A000080171B1016821F00401016094F85C003B
:1022B00000F01F0002FA00F0A860606D40F001001D
:1022C000606594F85C0000F01F01012000FA01F144
:1022D000314234D02068B84228D0504526D05845E5
:1022E00024D0404522D0484520D0B34A90421DD04A
:1022F000B24A90421AD0B24A904217D0B14A9042A4
:1023000014D0B14A904211D0B04A90420ED0B04A97
:1023100090420BD0AF4A904208D0AF4A904205D0CD
:10232000AE4A904202D0AE4A90427DD1406910F050
:10233000800F04D0A960606D40F00200606594F8E1
:102340005C0000F01F01042000FA01F1314234D09A
:102350002068B84228D0504526D0584524D0404562
:1023600022D0484520D0944A90421DD0934A9042B2
:102370001AD0934A904217D0924A904214D0924A6F
:10238000904211D0914A90420ED0914A90420BD087
:10239000904A904208D0904A904205D08F4A90428D
:1023A00002D08F4A904245D1006810F0020F04D04D
:1023B000A960606D40F00400606594F85C0000F076
:1023C0001F01102000FA01F1314259D02068B842B3
:1023D00028D0504526D0584524D0404522D04845E5
:1023E00020D0754A90421DD0744A90421AD0744A47
:1023F000904217D0734A904214D0734A904211D041
:10240000724A90420ED0724A90420BD0714A90426A
:1024100008D0714A904205D0704A904202D0704A6A
:10242000904209D1006800E002E000F0080006E0F8
:10243000006884E70068C0E7006800F00400F8B1B5
:10244000A9602068016811F4802F0DD0006810F495
:10245000002F04D0A16C99B12046884710E0216C70
:1024600071B1204688470BE0016811F4807F03D1E9
:10247000016821F008010160216C09B120468847FC
:1024800094F85C0000F01F01202000FA01F13142B5
:102490006FD02068B84228D0504526D0584524D067
:1024A000404522D0484520D0434A90421DD0434A5F
:1024B00090421AD0424A904217D0424A904214D0D9
:1024C000414A904211D0414A90420ED0404A904237
:1024D0000BD0404A904208D03F4A904205D03F4A34
:1024E000904202D03E4A904203D1006800F01000B2
:1024F00002E0006800F00200D8B3A96094F835004B
:1025000004280DD02068016811F4802F37D00068AE
:1025100010F4002F2ED0E16B59B32046884764E0B9
:102520002068016821F0160101602068416921F0EE
:1025300080014161206C08B9A06C20B1206801685D
:1025400021F00801016094F85C003F2100F01F00B9
:1025500001FA00F0A860012084F83500002084F81A
:102560003400216D00297BD003B02046BDE8F04F38
:10257000084737E0616CA9B32046884735E0016819
:1025800011F4807F09D1016821F010010160012060
:1025900084F83500002084F83400E16B11B322E0A8
:1025A00004000024100002402800024040000240C5
:1025B000580002407000024088000240A000024023
:1025C000B8000240100402402804024040040240C7
:1025D000580402407004024088040240A0040240F3
:1025E000B804024001E020468847606D002837D0DB
:1025F000606D10F0010F51D0042084F83500206880
:10260000B84228D0504526D0584524D0404522D045
:10261000484520D0AB4988421DD0AB4988421AD0EA
:10262000AA49884217D0AA49884214D0A9498842A9
:1026300011D0A94988420ED0A84988420BD0A84998
:10264000884208D0A749884205D0A749884202D0CD
:10265000A649884205D1016821F00101016004E02A
:1026600096E0016821F00101016021680298019A59
:10267000401C0290904203D8086810F0010FF5D179
:10268000086810F0010F03D0032084F8350002E041
:10269000012084F83500002084F83400E16C002922
:1026A00076D003B02046BDE8F04F0847904B9842E3
:1026B00014D0904B984211D08F4B98420ED08F4B34
:1026C00098420BD08E4B984208D08E4B984205D042
:1026D0008D4B984202D08D4B984259D103684FF0F0
:1026E000040A94F85C6006F01F060AFA06FA1AEA71
:1026F000010F5AD013F0040F57D0C5F804A013F4FB
:10270000004F12D013F4803F07D0216C00293FD036
:1027100003B02046BDE8F04F0847A16C002937D030
:1027200003B02046BDE8F04F084713F0200F34D126
:102730002068B84227D07649884224D0754988421B
:1027400021D040451FD048451DD05E4988421AD04F
:102750005D49884217D05D49884214D05C4988425F
:1027600011D060450FD05C4988420CD070450AD02A
:102770005B49884207D05B49884204D0904202D02E
:102780005A49884205D1016821F00801016004E03E
:1027900083E0016821F004010160216C00297CD0F4
:1027A00003B02046BDE8F04F08474FF0020A0AFA8E
:1027B00006FA1AEA010F5FD013F0020F5CD0C5F8D9
:1027C00004A013F4004F12D013F4803F07D0E16B44
:1027D000002974D003B02046BDE8F04F0847616C73
:1027E00000296CD003B02046BDE8F04F084713F035
:1027F000200F39D12068B84227D04549884224D0DB
:102800004449884221D040451FD048451DD02D491C
:1028100088421AD02C49884217D02C49884214D0BB
:102820002B49884211D060450FD02B4988420CD0EB
:1028300070450AD02A49884207D02A49884204D0E4
:10284000904202D02949884204D1016821F0140144
:10285000016003E0016821F00A010160012084F8B1
:102860003500002084F83400E16B002927D003B044
:102870002046BDE8F04F08470822B2400A421ED069
:1028800013F0080F1BD0016821F00E01016094F8CD
:102890005C0000F01F01012000E010E000FA01F1EF
:1028A0006960606584F83500002084F83400E16CCC
:1028B000002904D003B02046BDE8F04F084703B01C
:1028C000BDE8F08F88000240A0000240B80002403E
:1028D0001004024028040240400402405804024010
:1028E0007004024088040240A0040240B804024080
:1028F000085402581C540258305402584454025888
:10290000585402586C540258805402589454025837
:1029100028000240400002402DE9F05F044600F02C
:1029200047FF0646002C6AD0DC4F022220680025B3
:10293000DFF86C83DFF86C93B842DFF86CA3DFF844
:102940006CB328D0DA49884225D0404523D0484589
:1029500021D050451FD058451DD0D64988421AD0A5
:10296000D549884217D0D549884214D0D4498842E5
:1029700011D0D44988420ED0D34988420BD0D349D4
:10298000884208D0D249884205D0D249884202D034
:10299000D14988427ED184F8352084F83450B84239
:1029A00028D0C349884225D0404523D0484521D06E
:1029B00050451FD058451DD0BE4988421AD0BE4947
:1029C000884217D0BD49884214D0BD49884211D0F1
:1029D000BC4988420ED0BC4988420BD0BB498842D2
:1029E00008D0BB49884205D0BA49884202D0BA49CA
:1029F000884207D1016821F00101016006E0012051
:102A0000BDE8F09F016821F00101016020680068C5
:102A100010F0010F11D000F0CBFE801B052807D964
:102A200020206065032084F835000120BDE8F09F78
:102A30002068006810F0010FEDD122681068A749E6
:102A40000840E368A168D4F814C01943236943EA35
:102A50000C031943A3691943E3691943236A194312
:102A60000843616A042903D1236BE16A19430843CF
:102A70009B4909686FF30F01B1F1005F11D36168E1
:102A8000A1F12903052B0AD9163B032B07D9083BD3
:102A9000012B00E02CE002D94F39032901D840F482
:102AA000801010602068406920F00701606A40EAE9
:102AB000010604280ED1A06A0643E06A50B1204600
:102AC000FEF7ACFD30B140206065012084F8350090
:102AD000BDE8F09F206846612046FEF77BFC94F835
:102AE0005C103F2201F01F0102FA01F181605BE0FE
:102AF0007C49884214D07C4B984211D07B4B984241
:102B00000ED07B4B98420BD07A4B984208D07A4B30
:102B1000984205D0794B984202D0794B98427DD1AA
:102B200088420CD07049884209D07049884206D04A
:102B30006F49884203D06F49884200D06E4984F8BB
:102B4000352084F8345002686FF31012A1684029D0
:102B500079D0802979D00021E36841EAD301236943
:102B600041EAD301636941EAD301A36941EAD30190
:102B7000E36941EAD301236A41EA13111143016079
:102B80006049206801446048A0FB011000098000F2
:102B9000E0652046FEF71EFC94F85C10012201F06F
:102BA0001F0102FA01F141602068B84242D0404959
:102BB00088423FD040453DD048453BD0504539D074
:102BC000584537D03B49884234D03B49884231D0C0
:102BD0003A4988422ED03A4988422BD03949884216
:102BE00028D03949884225D03849884222D03849EE
:102BF00088421FD0374988421CD03749884219D0B3
:102C00003849884216D03849884213D0374988421B
:102C100010D0374988420DD0364900E018E088428C
:102C200008D03549884205D03449884202D0344919
:102C300088422CD12046FEF73FFCA06880280FD0A8
:102C40000FE000E001E0102186E74FF4804183E7C8
:102C500040206065032084F835000120BDE8F09F26
:102C60006560216E20790860616EA06E48606068C2
:102C7000401E072808D82046FEF78AFCE06E056053
:102C8000216F606F486002E0E566256765676565EE
:102C9000012084F835000020BDE8F09F10000240BC
:102CA000400002405800024070000240880002408C
:102CB00028000240A0000240B80002401004024078
:102CC00028040240400402405804024070040240BC
:102CD00088040240A0040240B80402403F8010FE75
:102CE0000010005C085402581C540258305402581A
:102CF00044540258585402586C5402588054025894
:102D000094540258F8ABFDA7CDCCCCCC704770479B
:102D1000704770472DE9F04F83B00446BC4F3868C8
:102D20008007391D096800EA81792068016D01F486
:102D30007041426D02EA010A016D01F00F01426D1E
:102D400002EA010B016D01F0F001426D11400291A8
:102D5000016D01F07151426D02EA0108016D01F04F
:102D60006071426D11400191456D066D15F4807FD3
:102D700009D016F4807F06D0B915016500203860AF
:102D80002046FFF7C6FF15F4806F10D016F4806F51
:102D90000DD02068D0F8DC10D0F8E42011404FF4BA
:102DA0008062026500203860204600F020FBB9F107
:102DB000000F0CD0216829F4401020F04040086535
:102DC0004FEA9970386049462046FFF79FFFBAF1F5
:102DD000000F0CD021682AF4401020F04040086514
:102DE0004FEA9A7038605146204600F002FBBBF172
:102DF000000F0CD021682BF4401020F040400865F3
:102E00004FEA9B7038605946204600F0E8FA029875
:102E100068B12168029820F4401020F04040086515
:102E20000298800F38600299204600F0D9FA15F414
:102E3000006F0BD016F4006F08D021684FF40060CB
:102E4000086500203860204600F0D4FA15F4007FB1
:102E500010D016F4007F0DD02068D0F8D810D0F82C
:102E6000E02011404FF400720265002038602046D7
:102E700000F0BEFA15F4002F0BD016F4002F08D086
:102E800021684FF40020086500203860204600F0DB
:102E9000A5FA15F4803F0BD016F4803F08D02168C6
:102EA0004FF48030086500203860204600F09EFA1C
:102EB00015F4802F0BD016F4802F08D021684FF422
:102EC0008020086500203860204600F08EFA15F456
:102ED000003F0ED016F4003F0BD021684FF40030B5
:102EE000086500203860D4F89C0040F08000C4F8E9
:102EF0009C00019868B12168019820F4401020F0EE
:102F0000404008650198800F386001992046FFF71E
:102F1000FFFEB8F1000F0ED0216828F4401020F019
:102F2000404008654FEA98703860D4F89C0040EA49
:102F30000800C4F89C002068A0F18041B1F5204150
:102F40005CD16068816811F0030F57D0016A01F00D
:102F50000F01426A1140026A02F03002436A03EA3A
:102F60000207026A02F4C072436A03EA0208026AB4
:102F700002F4FC42436A03EA0205026A02F4F02208
:102F8000436A03EA0206D0F82490D0F820A019B1D1
:102F90000162204600F026FA2FB1606807623946C8
:102FA000204600F021FA19F0400F0DD01AF0400F22
:102FB0000AD06068C16B090CC26B02F03F0240236B
:102FC0000362204600F00FFAB8F1000F06D06068E7
:102FD000C0F820804146204600F003FA35B1606811
:102FE0000562D4F89C002843C4F89C0036B16068A0
:102FF0000662D4F89C003043C4F89C00D4F89C00CE
:10300000002802D02046FFF782FE03B0BDE8F08F13
:1030100010A800402DE9F04194B004464C22A1498B
:1030200001A8FDF7CFFA5CB19F4F2068B84202D1EA
:1030300000F58070606094F89800002620B108E0E8
:1030400014B00120BDE8F08184F89960204600F0BA
:103050002DF92068816921F01001816100F0A8FB41
:103060000546206880694FF0030810F0080F15D05E
:1030700000F09EFB401B0A280BD9D4F89C0040F0BE
:103080000100C4F89C0084F8988014B00120BDE8C9
:10309000F0812068806910F0080FE9D1206881690B
:1030A00041F00101816100F083FB054620688069E1
:1030B00010F0010F15D100F07BFB401B0A280BD943
:1030C000D4F89C0040F00100C4F89C0084F898807B
:1030D00014B00120BDE8F0812068806910F0010F74
:1030E000E9D02068816941F002018161207C0128DA
:1030F00039D02068816941F040018161607C0128FC
:1031000037D02068816921F480418161A07C012849
:1031100035D02068816941F48051816120688169DE
:10312000A26821F44071114381612068816921F016
:10313000A40181612068016921F010010161E0684A
:10314000012822D030B302282BD02068816941F0B9
:10315000800181612068016941F010010161E0682E
:10316000032818D022E02068816921F040018161A4
:10317000C4E72068816941F480418161C6E7206825
:10318000816921F480518161C8E72068816941F03B
:10319000040181610AE02068816941F020018161B8
:1031A00004E02068816941F020018161207EE169AD
:1031B000401E491E400640EA0120216A491E08437C
:1031C000A18A491E40EA01402168C861A068B0F5A3
:1031D000407F0FD1E16AA06A491E401E40EA0120EB
:1031E000216B491E40EA0110A18C491E40EA0140B2
:1031F0002168C860206E30B12068D0F8C010626EBF
:103200001143C0F8C010216EE06DC84201A90AD078
:103210002068D0F8C820A36E22F0070251F82330AE
:103220001A43C0F8C820206C50B12068D0F8BC20E8
:10323000636C22F0070251F823301A43C0F8BC2017
:10324000A06C58B12068D0F8BC20E36C22F070026A
:1032500051F8233042EA0312C0F8BC20206D58B167
:103260002068D0F8BC20636D22F4E06251F823108E
:1032700042EA0121C0F8BC102068B84204D160685D
:10328000816821F003018160C4F89460C4F89C60F7
:10329000012084F898002046FEF780FB14B0BDE8BA
:1032A000F081000054CA000800A000402DE9F0435E
:1032B000B7B00446142132A8FDF7D8F9C02102A8FE
:1032C000FDF7D4F9414D00263E494FF08052206869
:1032D0000C3D3D4F4FF002083C4C88424FF009092D
:1032E00037D151130020CDE902101E9202A801F03F
:1032F00023F908B1FEF744FB3868401C3860012808
:1033000007D1206840F480702060206800F480704D
:103310000190286840F001002860286800F0010052
:1033200001904FF4C0503290CDF8CC803496359651
:10333000CDF8D89032A9264800F02CF900221320AD
:10334000114600F09FFE132000F08EFE37B0BDE85E
:10335000F08320498842F9D100204FF40041CDE9A3
:1033600002101E9202A801F0E7F808B1FEF708FB70
:103370003868401C3860012807D1206840F480700C
:103380002060206800F480700190286840F00200FE
:103390002860286800F00200019060203290CDF88B
:1033A000CC8034963596CDF8D89032A90A4800F0F2
:1033B000F1F800221420114600F064FE142000F001
:1033C00053FEC3E700A0004000000024EC44025874
:1033D0000000025800A400400004025870477047E3
:1033E0007047704770477047704770477047704725
:1033F00070477047704700002DE9F04F00235D4C87
:1034000000297DD04FF0B04A4FF0010E4FF00F0968
:103410000EFA03F707EA010CBCF1000F71D023F09C
:10342000030202F1B045D5F808249E074FEA16784A
:1034300009FA08F606EA020BA0F1B042B2F5003232
:103440007BD0A0F1B042B2F501327ED0A0F1B04203
:10345000B2F502327BD0A0F1B042B2F5033278D09F
:10346000A0F1B042B2F5043275D0A0F1B042B2F58D
:10347000053272D0A0F1B042B2F5063272D0A0F19E
:10348000B042B2F507326FD0A0F1B042B2F50832C7
:103490006CD0A0F1B042B2F5093269D00A2202FA2A
:1034A00008F25A4518D1226822EA0C0222606268AA
:1034B00022EA0C026260DAF8042022EA0C02CAF85E
:1034C0000420DAF8002022EA0C02CAF80020D5F81D
:1034D0000824B243C5F80824D0F800C05D000322D8
:1034E000AA404CEA020CC0F800C04FEAD30C00EB33
:1034F0008C0CDCF820505E07F60E09FA06F601E0A7
:1035000019E013E0B543CCF82050D0F80CC02CEAF9
:10351000020CC0F80CC0D0F804C02CEA070CC0F8AC
:1035200004C0D0F808C02CEA020282605B1C31FAA9
:1035300003F27FF46DAFBDE8F08F04E005E006E034
:1035400007E008E009E00022A9E70122A7E702223C
:10355000A5E70322A3E70422A1E705229FE701E0F4
:1035600002E003E006229AE7072298E7082296E79E
:10357000092294E780000058704710B54FF0B04121
:10358000D1F88820024203D0C1F88800FFF7F4FF89
:1035900010BD00002DE9F84F0022DFF8E4C10B68F0
:1035A000002B7DD0DFF8DCB14FF0B04A4FF0010EB8
:1035B0004FF003084FF00F090B680EFA02F52B408D
:1035C000002B6ED00C7904F00304012C01D0022CE6
:1035D00011D18668540008FA04F7BE43CF6807FA91
:1035E00004F4344384604468AC430D79C5F300159A
:1035F00095402C4344604C6838EA040409D0C568FF
:10360000540008FA04F6B5438E6806FA04F42C4315
:10361000C4600C7904F00304022C0DD1D40800EB33
:1036200084052E6A5407E40E09FA04F7BE430F69B5
:1036300007FA04F434432C620568540008FA04F6CF
:10364000B5430E7906F0030606FA04F42C43046031
:103650004C6814F4403F78D0DBF8004044F002049A
:10366000CBF80040DBF8004004F00204009422F0A4
:10367000030404F1B046D6F8084495072D0F09FA63
:1036800005F724EA0707A0F1B044B4F5003463D08D
:10369000A0F1B044B4F5013460D0A0F1B04401E031
:1036A00058E052E0B4F502345AD0A0F1B044B4F579
:1036B000033457D0A0F1B044B4F5043454D0A0F191
:1036C000B044B4F5053451D0A0F1B044B4F506349B
:1036D0004ED0A0F1B044B4F507344BD0A0F1B044C3
:1036E000B4F5083448D0A0F1B044B4F5093445D05D
:1036F0000A24AC403C43C6F80844DAF800409C4336
:103700004D6815F4801F00D01C43CAF80040DAF859
:1037100004409C434D6815F4001F00D01C43CAF8B8
:103720000440DCF804409C434D6815F4003F00D091
:103730001C43CCF80440DCF800409C434D6815F471
:10374000803F00D01C43CCF80040521C0B68D34093
:103750007FF432AFBDE8F88F0024CAE70124C8E740
:103760000224C6E70324C4E70424C2E70524C0E713
:103770000624BEE70724BCE70824BAE70924B8E713
:1037800080000058F44402580069084201D001202A
:10379000704700207047002A01D0816170470904FA
:1037A0008161704701480068000C70470010005CA0
:1037B00001488068704700007C02002490F8412096
:1037C000202A01D00220704790F84020012A20D002
:1037D000012280F84020242280F8412002681368EA
:1037E00023F0010313600268136823F4805313600D
:1037F000026813681943116001680A6842F0010207
:103800000A60202180F84110002180F8401000203B
:1038100070470220704790F84120202A01D00220F2
:10382000704790F84020012A1ED0012280F84020E5
:10383000242280F841200268136823F001031360FA
:103840000268136823F4706343EA01211160016880
:103850000A6842F001020A60202180F8411000212C
:1038600080F84010002070470220704710B50446D1
:10387000002C14D0242084F841002068016821F035
:1038800001010160204600F0CDFA0020606484F858
:103890004100206384F8420084F8400010BD0120FC
:1038A00010BD90F84100704770B50446002C04D05C
:1038B00094F84100002510B106E0012070BD84F8A5
:1038C0004050204600F0CCFA242084F841002068C3
:1038D000016821F001010160606820F070612068DA
:1038E00001612068816821F400418160E06801285D
:1038F00033D02168A06840F404408860E068022862
:1039000031D02068416821F400614160206841683D
:1039100041F4004141F0007141602068C16821F428
:103920000041C160616920690843A16940EA012042
:103930002168C860216AE06908432168086020683E
:10394000016841F0010101606564202084F84100B4
:10395000256384F84250002070BD2168A06840F4BF
:1039600000408860CAE72068416841F40061416016
:10397000CCE72DE9F04F83B0044692461D464FF048
:10398000000BCDF808B094F84100202803D003B014
:103990000220BDE8F08F2068806910F4004F03D04A
:1039A00003B00220BDE8F08F94F8400001282AD02F
:1039B000012084F84000242084F84100C4F844B079
:1039C000C1F3090020F480614FF0200920F48060E9
:1039D00041F4005740F4205847F0007748F0007851
:1039E000E068012813D0404621684860FFF7E0FEF8
:1039F000064620688169C1F340118069C0F3001058
:103A0000084306D017E003B00220BDE8F08F384627
:103A1000EAE7B5F1FF3F05D0FFF7CAFE801BA842D9
:103A20001AD8CDB120688169C1F340118069C0F313
:103A300000100843EDD02068806910F0100F17D0F7
:103A400000222B4620212046009604F017F930B3BF
:103A500003B00120BDE8F08F84F84190606C40F025
:103A60002000606484F840B003B00120BDE8F08F0E
:103A700000222B4620212046009604F0FFF818B1C2
:103A800003B00120BDE8F08F2068C0F81C9084F8D6
:103A9000419084F840B003B00020BDE8F08F216869
:103AA0001020C8612068C0F81C900298401C029049
:103AB0000298504594D384F84190606C40F0200007
:103AC000606484F840B003B00120BDE8F08F0000CE
:103AD0002DE9FF4F83B0044692469B46DDF84490A3
:103AE000DDF84080129F94F84100202803D007B0F1
:103AF0000220BDE8F08FB8F1000F18D0B9F1000F27
:103B000015D094F84000012818D0012084F8400016
:103B1000FFF74EFE05462046012200951923D103EA
:103B200004F0ACF870B107B00120BDE8F08F4FF49D
:103B30000070606407B00120BDE8F08F07B002207C
:103B4000BDE8F08F222084F84100402084F8420034
:103B500000266664C4F82480A4F82A9066635B4655
:103B60000499524620460097019503F0EFFF28B1D3
:103B700084F8406007B00120BDE8F08F618D4FF000
:103B8000FF083D48FF290AD94246A4F82880049935
:103B90004FF080730090204604F054F80AE0618DE5
:103BA00021854FF000730090204694F82820049956
:103BB00004F048F800223B4604212046009504F01A
:103BC0005DF818B107B00120BDE8F08F2068406AA9
:103BD000616A0870606A401C6062208D401E80B27D
:103BE0002085618D491E6185618D29B320BB00222E
:103BF0003B4680212046009504F040F818B107B0FC
:103C00000120BDE8F08F608DFF280AD94246A4F854
:103C1000288004994FF080732046009604F012F833
:103C20000AE0608D20854FF000730096204694F8DE
:103C30002820049904F006F8608D0028BAD12A469D
:103C40003946204604F065F818B107B00120BDE8F8
:103C5000F08F20682021C16120684268074B1A401C
:103C6000426084F8411084F8426084F8406007B0F4
:103C70000020BDE8F08F00000024008000E800FE76
:103C80002DE9FF4F83B0044692469B46DDF84490F1
:103C9000DDF84080129F94F84100202803D007B03F
:103CA0000220BDE8F08FB8F1000F18D0B9F1000F75
:103CB00015D094F84000012818D0012084F8400065
:103CC000FFF776FD05462046012200951923D10312
:103CD00003F0D4FF70B107B00120BDE8F08F4FF4BE
:103CE0000070606407B00120BDE8F08F07B00220CB
:103CF000BDE8F08F212084F84100402084F8420084
:103D000000266664C4F82480A4F82A9066635B46A3
:103D10000499524620460097019503F055FF28B1BB
:103D200084F8406007B00120BDE8F08F608D4FF04F
:103D3000FF08FF280AD94246A4F8288004994FF0CA
:103D400080732046009603F07DFF0AE0608D208599
:103D50004FF000730096204694F82820049903F051
:103D600071FF2A463946204604F004F818B107B01E
:103D70000120BDE8F08F606A216800788862606A7F
:103D8000401C6062608D401E6085208D401E80B2A8
:103D90002085618D29B320BB00223B46802120462F
:103DA000009503F06BFF18B107B00120BDE8F08F5C
:103DB000608DFF280AD94246A4F8288004994FF064
:103DC00080732046009603F03DFF0AE0608D208559
:103DD0004FF000730096204694F82820049903F0D1
:103DE00031FF608D0028BCD12A463946204603F0B9
:103DF00090FF18B107B00120BDE8F08F20682021A6
:103E0000C16120684268064B1A40426084F8411044
:103E100084F8426084F8406007B00020BDE8F08F6D
:103E200000E800FE10B500680A49884211D10A482E
:103E3000016821F480010160084C4FF48061204644
:103E4000FFF7DAFA2046BDE810404FF40061FFF7B3
:103E5000D3BA10BD00580040E8440258000402588C
:103E600030B5B7B00446142132A8FCF7FFFBC021DF
:103E700002A8FCF7FBFB1D492068884234D11C4C8A
:103E8000206840F480002060206800F480000190E9
:103E900008210020CDE902100025239502A800F09A
:103EA0004BFB08B1FDF76CFD11480838016841F083
:103EB00002010160006800F0020001904FF44060D0
:103EC00032901220339001203490359504203690A2
:103ED00032A90848FFF75EFB206840F480002060AC
:103EE000206800F48000019037B030BD00580040D9
:103EF000E8440258000402580248816802781144DC
:103F0000816070477C02002410B5032000F0F0F8B7
:103F100001F010FA0F4A1168C1F303230E49CB5C7C
:103F200003F01F03D840126802F00F02895C0B4AAD
:103F300001F01F0120FA01F1116009490860002019
:103F400000F010F808B1012010BD00F07DF800204D
:103F500010BD00001844025866C90008080000247B
:103F60000400002470B504460F4D2A78002A0CD0B6
:103F70004FF47A700D49B0FBF2F00968B1FBF0F034
:103F800002F030FB18B1012070BD012070BD102C73
:103F900007D200222146501E00F074F86C60002009
:103FA00070BD012070BD00007C02002404000024CC
:103FB000124A4178116012490A6822F001020A602F
:103FC0000B1F42681A60027BC37A120742EA03623F
:103FD000837A42EAC342437B42EA8342837B42EADA
:103FE0004342C37B42EA0342437A42EA0322037A12
:103FF000007842EA430210430860704798ED00E001
:10400000A0ED00E0BFF35F8F0448016821F4803128
:1040100001600349002008607047000024ED00E0C3
:1040200094ED00E0064940F0010008600548016891
:1040300041F480310160BFF34F8FBFF36F8F704742
:1040400094ED00E024ED00E082B00648016841F004
:1040500002010160006800F002000190052002B03A
:1040600000F046B8F444025800280ADB012200F0B0
:104070001F0102FA01F14009800000F1E020C0F8C0
:10408000001170474DF8044D184B1B68C3F3022311
:10409000C3F1070CBCF1040F01D94FF0040C1C1D37
:1040A000072C01D2002300E0DB1E012404FA0CFCE3
:1040B000ACF1010C0CEA0101994004FA03F35B1E18
:1040C0001A401143002807DB00F1E020090180F8C5
:1040D00000145DF8044B704700F00F0000F1E02081
:1040E000090180F8141D5DF8044B70470CED00E0E9
:1040F00000F00700064A11684FF6FF03194041EA35
:10410000002040F0FD7040F08060106070470000BB
:104110000CED00E070B515490A6812F0040F0DD0DF
:104120000A6822F0070210430860FFF741FB0446CB
:104130000F4D286810F4005F09D014E0096801F001
:104140000701814201D0012070BD002070BDFFF742
:104150002FFB001BB0F57A7F01D9012070BD2868C4
:1041600010F4005FF3D0002070BD00000C4802582E
:104170000448025810B501F091F805490968054A4C
:10418000C1F30211515C01F01F01C84010BD0000D5
:104190002044025866C9000869490A6802F003020F
:1041A0000968C1F30531674B1B68C3F30013DFF8DF
:1041B00098C1DCF800C0CCF3CC0C1CFB03F300EE80
:1041C000103AB8EE400A002972D09FED601A604B99
:1041D000002AF7EE000A46D0DFED5E1A012A68D009
:1041E000022A67D002EE101A1968F8EE422A81EE10
:1041F000A22AC1F3080101EE901AF8EE611A40EE0E
:10420000011A31EEA00A22EE000A1968C1F3462114
:1042100001EE101AB8EE411A31EE201AC0EE011A62
:10422000BCEEE11A80ED001A1968C1F3064101EEF7
:10423000101AB8EE411A31EE201AC0EE011ABCEE87
:10424000E11A80ED011A1968C1F3066101EE101A36
:10425000B8EE411A71EE200A80EE201ABCEEC10AB7
:1042600080ED020A70473C4AD2F800C01CF0200FD3
:1042700021D01268DFF8E4C0C2F3C1022CFA02F2C6
:1042800001EE902AF8EE612A01EE901A1968F8EE14
:10429000611A82EEA12AC1F3080101EE901AF8EE2C
:1042A000611A40EE011A31EEA00A22EE000AACE7D4
:1042B00041E016E029E001EE901ADFED292A1968A5
:1042C000F8EE611A82EEA12AC1F3080101EE901AFC
:1042D000F8EE611A40EE011A31EEA00A22EE000A51
:1042E00093E702EE101A1968F8EE422A81EEA22A2C
:1042F000C1F3080101EE901AF8EE611A40EE011ABE
:1043000031EEA00A22EE000A7FE701EE901ADFEDFF
:10431000152A1968F8EE611A82EEA12AC1F3080184
:1043200001EE901AF8EE611A40EE011A31EEA00A81
:1043300022EE000A69E70021016041608160704758
:10434000284402582C4402583C44025800000039CA
:10435000384402580024744A004402580090D003A4
:104360000024744C0024F44A69490A6802F00302EC
:104370000968C1F30551674B1B68C3F30023DFF8DD
:1043800098C1DCF800C0CCF3CC0C1CFB03F300EEAE
:10439000103AB8EE400A002972D09FED601A604BC7
:1043A000002AF7EE000A46D0DFED5E1A012A68D037
:1043B000022A67D002EE101A1968F8EE422A81EE3E
:1043C000A22AC1F3080101EE901AF8EE611A40EE3C
:1043D000011A31EEA00A22EE000A1968C1F3462143
:1043E00001EE101AB8EE411A31EE201AC0EE011A91
:1043F000BCEEE11A80ED001A1968C1F3064101EE26
:10440000101AB8EE411A31EE201AC0EE011ABCEEB5
:10441000E11A80ED011A1968C1F3066101EE101A64
:10442000B8EE411A71EE200A80EE201ABCEEC10AE5
:1044300080ED020A70473C4AD2F800C01CF0200F01
:1044400021D01268DFF8E4C0C2F3C1022CFA02F2F4
:1044500001EE902AF8EE612A01EE901A1968F8EE42
:10446000611A82EEA12AC1F3080101EE901AF8EE5A
:10447000611A40EE011A31EEA00A22EE000AACE702
:1044800041E016E029E001EE901ADFED292A1968D3
:10449000F8EE611A82EEA12AC1F3080101EE901A2A
:1044A000F8EE611A40EE011A31EEA00A22EE000A7F
:1044B00093E702EE101A1968F8EE422A81EEA22A5A
:1044C000C1F3080101EE901AF8EE611A40EE011AEC
:1044D00031EEA00A22EE000A7FE701EE901ADFED2E
:1044E000152A1968F8EE611A82EEA12AC1F30801B3
:1044F00001EE901AF8EE611A40EE011A31EEA00AB0
:1045000022EE000A69E70021016041608160704786
:10451000284402582C4402584444025800000039F0
:10452000404402580024744A004402580090D003CA
:104530000024744C0024F44A2DE9F84F0446002569
:1045400000262068C04310F0006FFE4FDFF8F883AC
:104550000DD1A06E88B1B0F5801F13D0B0F5001F4B
:1045600017D0B0F5401F00D00125CDB12E462088D0
:10457000C04310F4807F1CD039E0386840F400302C
:104580003860F2E7022104F1080006F00BF8054656
:10459000EBE7022104F1280006F0A4F80546E4E761
:1045A000D8F80000A16E20F440100843C8F80000BD
:1045B000DDE7A06D052817D2DFE800F003080F172C
:1045C0001700386840F4003038600EE0002104F134
:1045D000080005F0E7FF054607E0002104F1280088
:1045E00006F080F8054600E0012535B12E4620880A
:1045F000C04310F4007F09D018E0D8F80000A16D86
:1046000020F007000843C8F80000F0E7E06D8028BC
:1046100020D003DC90B1402805D114E0C02803D09D
:10462000B0F5807F00D00125DDB12E462088DFF86F
:104630001C93C04310F4806F1CD02FE0386840F406
:1046400000303860F0E7002104F1080005F0AAFF0F
:104650000546E9E7002104F1280006F043F8054685
:10466000E2E7D8F80000E16D20F4E0700843C8F8F4
:104670000000DBE7D4F8A800B0F5800F20D004DC00
:1046800090B1B0F5001F06D113E0B0F5C00F03D014
:10469000B0F5000F00D00125CDB12E462088C043D3
:1046A00010F4006F1DD030E0386840F400303860FE
:1046B000F2E7002104F1080005F074FF0546EBE77E
:1046C000002104F1280006F00DF80546E4E7D9F8CA
:1046D0000000D4F8A81020F460000843C9F80000D6
:1046E000DCE7D4F8AC00B0F1007F20D004DC90B15E
:1046F000B0F1807F06D113E0B0F1407F03D0B0F17C
:10470000806F00D00125CDB12E462068C04310F047
:10471000007F1DD027E0386840F400303860F2E7B1
:10472000002104F1080005F03DFF0546EBE70021FC
:1047300004F1280005F0D6FF0546E4E7D9F80000AB
:10474000D4F8AC1020F0E0600843C9F80000DCE7C2
:10475000E06C30B110280CD020280FD0302800D0C9
:10476000012595B12E462088C04310F4805F14D0F7
:1047700026E0386840F400303860F2E7022104F1A6
:10478000080005F00FFF0546EBE771480168E26C91
:1047900021F0300111430160E5E7206EB0F5005FC4
:1047A00020D004DC90B1B0F5805F06D113E0B0F505
:1047B000405F03D0B0F5804F00D00125CDB12E462B
:1047C0002088C04310F4005F1CD031E0386840F40A
:1047D00000303860F2E7002104F1080005F0E2FE45
:1047E0000546EBE7002104F1280005F07BFF0546B4
:1047F000E4E7D8F80000216E20F4E0400843C8F850
:104800000000DDE7606EB0F5403F0FD007DC68B117
:10481000B0F5803F12D0B0F5003F06D115E0B0F5FD
:10482000802F03D0B0F5A02F00D00125A5B12E46D2
:104830002088C04310F4804F17D02DE0012104F1EF
:10484000080005F0AFFE0546F0E7012104F128005D
:1048500005F048FF0546E9E7D8F80000616E20F44E
:10486000E0200843C8F80000E2E7D4F8B000B0F157
:10487000405F0FD007DC68B1B0F1805F12D0B0F1BB
:10488000005F06D115E0B0F1804F03D0B0F1A04F2A
:1048900000D00125A5B12E462088C04310F4004F5A
:1048A00018D022E0012104F1080005F07BFE054646
:1048B000F0E7012104F1280005F014FF0546E9E7BF
:1048C000D9F80000D4F8B01020F0E0400843C9F84F
:1048D0000000E1E7206F30B1B0F1805F0BD0B0F1A4
:1048E000005F0DD0012595B12E462068C04310F021
:1048F000807F15D01FE0386840F400303860F2E760
:10490000012104F1080005F04DFE0546EBE7D8F85B
:104910000000216F20F040500843C8F80000E4E791
:10492000A06C30B1012819D002281CD0032800D077
:104930000125FDB12E462068DFF818B0C04310F401
:10494000800F09E02C440258504402585844025841
:104950004C4402581044025814D030E0386840F4F7
:1049600000303860E5E7022104F1080005F01AFE86
:104970000546DEE7F8480168A26C21F00301114307
:104980000160D8E7F548006840F48071F3480160A1
:10499000FEF70EFF8246F148006810F4807F0CD1CC
:1049A000FEF706FFA0EB0A00642801D9032504E006
:1049B000EA48006810F4807FF2D045B12E46207896
:1049C000DFF89CA3C04310F0010F60D070E0DFF867
:1049D00094A3DAF80000B4F8B41000F4407001F4C5
:1049E0004071884211D0DAF8000020F44070DAF803
:1049F000001041F48031CAF80010DAF8001021F4F8
:104A00008031CAF80010CAF80000D4F8B400B0F53C
:104A1000807F16D1FEF7CCFE0090DAF8000010F08F
:104A2000020F0ED1FEF7C4FE0099411A41F2883000
:104A3000814201D9032504E0DAF8000010F0020FEA
:104A4000F0D00DB12E46BAE7D4F8B4004FF440715F
:104A500081430FD0DBF8000020F47C50CBF800003D
:104A6000DAF80000B4F8B410C1F30B010843CAF837
:104A70000000A4E7DBF8001020F4407020F0704044
:104A800021F47C5141EA1010CBF80000E8E7E06F18
:104A900018280BD005DC48B108280FD0102804D105
:104AA00013E0202802D0282800D00125A5B12E46E9
:104AB0002078C04310F0020F17D02FE0012104F13D
:104AC000080005F06FFD0546F0E7012104F128001C
:104AD00005F008FE0546E9E7DAF80000E16F20F08E
:104AE00038000843CAF80000E2E7A06F062812D297
:104AF000DFE800F012030A121212012104F108008B
:104B000005F050FD054607E0012104F1280005F0FD
:104B1000E9FD054600E0012535B12E462078C04369
:104B200010F0040F09D022E0DAF80000A16F20F0A5
:104B300007000843CAF80000F0E7D4F894000628FC
:104B400012D2DFE800F012030A121212012104F15E
:104B5000080005F027FD054607E0012104F12800C3
:104B600005F0C0FD054600E0012535B12E46207850
:104B7000C04310F0200F0AD020E0D9F80000D4F88C
:104B8000941020F007000843C9F80000EFE7D4F8BC
:104B90009000B0F1405F0FD007DC68B1B0F1805FEA
:104BA00012D0B0F1005F06D115E0B0F1804F03D014
:104BB000B0F1A04F00D00125A5B12E462078C0430A
:104BC00010F0400F18D02EE0002104F1080005F08D
:104BD000E9FC0546F0E7022104F1280005F082FD1A
:104BE0000546E9E7DAF80000D4F8901020F0E0403C
:104BF0000843CAF80000E1E7D4F89C00B0F5406F24
:104C00000FD007DC68B1B0F5806F12D0B0F5006F3F
:104C100006D115E0B0F5805F03D0B0F5A05F00D0FD
:104C20000125A5B12E462078C04310F0800F18D082
:104C30002EE0002104F1080005F0B4FC0546F0E781
:104C4000022104F1280005F04DFD0546E9E7D9F8F9
:104C50000000D4F89C1020F4E0500843C9F800008C
:104C6000E1E7D4F8A000B0F5C04F0FD007DC68B181
:104C7000B0F5005F12D0B0F5804F06D115E0B0F569
:104C8000004F03D0B0F5204F00D00125A5B12E462E
:104C90002078C04310F0080F18D02CE0002104F158
:104CA000080005F07FFC0546F0E7022104F128002A
:104CB00005F018FD0546E9E7D9F80000D4F8A01082
:104CC00020F460400843C9F80000E1E7D4F884000C
:104CD000B0F5805F06D1022104F1280005F002FD45
:104CE00000B10126DAF80000D4F8841020F4405016
:104CF0000843CAF800002078C04310F0100F14D108
:104D0000D4F89800B0F5807F06D1022104F1280084
:104D100005F0E8FC00B10126D9F80000D4F898109D
:104D200020F440700843C9F800002068C04310F424
:104D3000002F0BD1D4F8A400B0B1B0F5803F1AD049
:104D4000B0F5003F00D00125E5B12E462068C043F4
:104D500010F4802F20D02DE04C4402580048025817
:104D60005444025870440258002104F1080005F030
:104D700019FC0546E8E7022104F1280005F0B2FC21
:104D80000546E1E7D9F80000D4F8A41020F440303B
:104D90000843C9F80000D9E7D4F88800B0F5801FAF
:104DA0000ED0B0F5001F10D0B0F5401F00D0012587
:104DB00095B12E462068C04310F4803F16D01DE008
:104DC000386840F400303860F2E7012104F128002F
:104DD00005F088FC0546EBE7DAF80000D4F8881007
:104DE00020F440100843CAF80000E3E7206D58B1F2
:104DF000B0F5803F0DD0012595B12E462068C04307
:104E000010F0005F14D01AE0386840F400303860C9
:104E1000F2E7022104F1080005F0C4FB0546EBE7C8
:104E20006E480168226D21F4803111430160E5E78D
:104E3000022104F1280005F055FC00B1012620688C
:104E4000C04310F4003F0ED1D4F8800048B1B0F553
:104E5000807F0ED0B0F5007F03D0B0F5407F00D04A
:104E600001255DB12E462068C04310F4801F0FD08D
:104E700016E0386840F400303860F2E7DAF80000F5
:104E8000D4F8801020F440700843CAF80000EAE724
:104E9000D8F80000616F20F000400843C8F8000017
:104EA0002068C04310F0805F08D1DBF80000D4F820
:104EB000B81020F480400843CBF800002068C043BD
:104EC00010F4001F07D1D8F80000E16E20F08070C8
:104ED0000843C8F800002068C04310F0804F0CD190
:104EE000DBF8000020F40040CBF80000DBF8000005
:104EF000D4F8BC100843CBF800002068C04310F081
:104F0000004F06D135480168626D21F040511143D0
:104F100001602068C04310F4000F08D1DAF80000E7
:104F2000D4F88C1020F440000843CAF8000020791F
:104F30000025C04300F00100284306D1002104F100
:104F4000080005F02FFB00B106462079C04300F0B1
:104F50000200284306D1012104F1080005F022FBDC
:104F600000B106462079C04300F00400284306D172
:104F7000022104F1080005F015FB00B10646207976
:104F8000C04300F00800284306D1002104F12800A6
:104F900005F0A8FB00B106462079C04300F01000E0
:104FA000284306D1012104F1280005F09BFB00B144
:104FB00006462079C04300F02000284306D1022194
:104FC00004F1280005F08EFB00B1064616B1012061
:104FD000BDE8F88F0020BDE8F88F00004C4402586F
:104FE0002DE9F05F04460D46002C17D0DFF88492BF
:104FF000D9F8000000F00F00A84212D2D9F8000042
:1050000020F00F002843C9F80000D9F8000000F094
:105010000F00A84205D00120BDE8F09F0120BDE8A7
:10502000F09F2078944E10F0040F0AD02069316868
:1050300001F07001884204D9316821F07001084301
:10504000306020788D4F10F0080F0AD06069396801
:1050500001F07001884204D9396821F070010843D9
:105060003860207810F0100F0AD0A069396801F478
:10507000E061884204D9396821F4E061084338606E
:105080002078DFF8FCB110F0200F0DD0E069DBF8DC
:10509000001001F07001884206D9DBF8001021F001
:1050A00070010843CBF80000207810F0020F0AD0FE
:1050B000E068316801F00F01884204D9316821F0BD
:1050C0000F0108433060207810F0010F51D0306894
:1050D000A16820F470600843306060686949022864
:1050E00008D003280DD0012812D0096811F0040F50
:1050F00034D011E0096811F4003F0DD10120BDE862
:10510000F09F096811F0007F06D10120BDE8F09FF3
:10511000096811F4807F1ED0DFF86CA1DAF8001066
:1051200021F007010843CAF80000FEF741FB804662
:10513000DAF80000616800F03800B0EBC10F18D059
:10514000FEF736FBA0EB080141F28830814208D916
:105150000320BDE8F09F0120BDE8F09F0120BDE8DD
:10516000F09FDAF80000616800F03800B0EBC10F82
:10517000E6D1207810F0020F0AD0E068316801F023
:105180000F01884204D2316821F00F0108433060DA
:10519000D9F8000000F00F00A8420FD9D9F800009C
:1051A00020F00F002843C9F80000D9F8000000F0F3
:1051B0000F00A84202D00120BDE8F09F207810F037
:1051C000040F0AD02069316801F07001884204D2CE
:1051D000316821F0700108433060207810F0080F2A
:1051E0000AD06069396801F07001884204D23968D8
:1051F00021F0700108433860207810F0100F0AD0B9
:10520000A069396801F4E061884204D2396821F468
:10521000E06108433860207810F0200F0DD0E0697D
:10522000DBF8001001F07001884206D2DBF80010B4
:1052300021F070010843CBF8000000F07BF83168E2
:10524000C1F3032211498A5C02F01F02D040326888
:1052500002F00F02895C0E4A01F01F0120FA01F1F1
:1052600011600C4908600C480068BDE8F05FFEF76B
:1052700079BE000000200052184402581C44025815
:1052800020440258004402581044025866C90008DD
:105290000800002404000024800200244DF804EDDE
:1052A00000F048F80B4A11680B4BC1F30321595C1D
:1052B00001F01F0120FA01F11068084A00F00F0008
:1052C000185C00F01F0021FA00F01060044A116021
:1052D0005DF804FB1844025866C900080800002461
:1052E000040000244DF804EDFFF7D8FF05490968D4
:1052F000054AC1F30211515C01F01F01C8405DF87D
:1053000004FB00001C44025866C900084DF804ED77
:10531000FFF7C4FF05490968054AC1F30221515C42
:1053200001F01F01C8405DF804FB00001C44025856
:1053300066C900084DF8044D69480068DFF8A4C14B
:10534000694B10F038014ED008294FEA2C1047D095
:10535000102959D0182943D16448016801F003018C
:105360000068C0F30510624A126802F00102614C45
:105370002468C4F3CC0414FB02F200EE102AB8EE49
:10538000400A00287BD0DFED5C0A5C4AB7EE001AC9
:10539000A9B39FED5B2A012974D0022971D001EED7
:1053A000900A1068F8EE611AC2EE212AC0F30800D4
:1053B00001EE900AF8EE611A40EE201A31EE810AF1
:1053C00022EE800A1068C0F34620401C00EE900ACE
:1053D000F8EE600A80EE201ABCEEC10A10EE100A48
:1053E0005DF8044B7047186810F0200F08D018685B
:1053F0005DF8044BC0F3C1002CFA00F0704707E0E1
:105400005DF8044B604670473E485DF8044B7047BA
:10541000196811F0200F1CD01968C1F3C1012CFAD2
:1054200001F101EE901AF8EE612A01EE900A10687F
:10543000F8EE611A82EEA12AC0F3080001EE900A8C
:10544000F8EE611A40EE201A31EE810A22EE000ACF
:10545000B8E701EE900ADFED2C2A1068F8EE611A29
:1054600082EEA12AC0F3080001EE900AF8EE611A5C
:1054700040EE201A31EE810A22EE000AA2E72BE06C
:1054800000E013E001EE900A1068F8EE611AC2EE37
:10549000212AC0F3080001EE900AF8EE611A40EEEE
:1054A000201A31EE810A22EE800A8BE701EE900A83
:1054B000DFED162A1068F8EE611A82EEA12AC0F319
:1054C000080001EE900AF8EE611A40EE201A31EE63
:1054D000810A22EE000A75E75DF8044B0020704750
:1054E000104402580090D003004402582844025847
:1054F0002C44025834440258000000393044025809
:105500000024744A00127A000024744C0024F44AE7
:105510002DE9F05F0446002C11D02078DFF8F883E5
:10552000FE4F10F0010FFE4D6BD0D8F8000000F0D8
:1055300038003968102823D0182803D006E001204D
:10554000BDE8F09F01F00300022819D06068B0F5B3
:10555000803F1ED010B3B0F5A02F28D0286820F4CB
:1055600080302860286820F480202860606878B344
:10557000FEF71EF90646286810F4003F20D040E0F0
:10558000286810F4003F3CD0606830BB0120BDE8C3
:10559000F09F286840F480302860E7E7286820F40E
:1055A00080302860286820F480202860DEE72868A2
:1055B00040F480202860286840F480302860D5E7D7
:1055C000FEF7F6F8801B642803D90320BDE8F09F9E
:1055D00004E0286810F4003FF2D012E0FEF7E8F88B
:1055E0000646286810F4003F0BD0FEF7E1F8801B58
:1055F000642802D90320BDE8F09F286810F4003F1A
:10560000F3D1207841F2030AC64E10F0020F4BD0BE
:10561000D8F8000000F038003968A0B1182802D18D
:1056200011F0030F0FD0E068002878D0296821F02E
:10563000190108432860FEF7BBF88146286810F07E
:10564000040F41D04DE0286810F0040F01D0E0684D
:1056500068B12868E16820F0190008432860FEF767
:10566000A7F88146286810F0040F03D00FE001204E
:10567000BDE8F09FFEF79CF8A0EB0900022802D9D4
:105680000320BDE8F09F286810F0040FF2D0FEF769
:1056900089F8504510D82069402806D0316821F497
:1056A0007C3141EA0030306051E0306820F47C30D9
:1056B00040F4003030604AE03068217C20F0FE4049
:1056C00040EA0160306042E0FEF772F8A0EB0900AA
:1056D000022802D90320BDE8F09F286810F0040FCB
:1056E000F2D0FEF75FF8504511D82069402806D067
:1056F000316821F47C3141EA0030306027E03068C5
:1057000020F47C3040F40030306020E007E0306866
:10571000217C20F0FE4040EA0160306017E02868FC
:1057200020F001002860FEF743F88146286810F059
:10573000040F0CD0FEF73CF8A0EB0900022802D9B8
:105740000320BDE8F09F286810F0040FF2D1207804
:1057500010F0100F45D0D8F8000000F0380039687C
:10576000DFF8C4B1082813D0182803D101F00300D2
:1057700001280DD0E069A8B3286840F080002860B7
:10578000FEF716F88146286810F4807F2BD037E0AA
:10579000286810F4807F05D0E069802802D00120BD
:1057A000BDE8F09FFDF7FEFF504510D8206A202885
:1057B00006D0316821F0F84141EA8060306056E05F
:1057C000306820F0F84040F0804030604FE0DBF877
:1057D000000094F8201020F07C5040EA0160CBF8E3
:1057E000000044E02CE0FDF7E3FFA0EB09000228F5
:1057F00002D90320BDE8F09F286810F4807FF2D022
:10580000FDF7D0FF504510D8206A202806D0316817
:1058100021F0F84141EA8060306028E0306820F0F3
:10582000F84040F08040306021E0DBF8000094F860
:10583000201020F07C5040EA0160CBF8000016E018
:10584000286820F080002860FDF7B2FF064628682F
:1058500010F4807F0BD0FDF7ABFF801B022802D92C
:105860000320BDE8F09F286810F4807FF3D12078F2
:1058700010F0080F3AD0DFF8B4906069D8B1D9F8C9
:10588000000040F00100C9F80000FDF791FF064656
:10589000D9F8000010F0020F28D1FDF789FF801B16
:1058A000022802D90320BDE8F09FD9F8000010F0CB
:1058B000020FF2D01AE0D9F8000020F00100C9F878
:1058C0000000FDF775FF0646D9F8000010F0020F42
:1058D0000CD0FDF76DFF801B022802D90320BDE824
:1058E000F09FD9F8000010F0020FF2D1207810F0EC
:1058F000200F3DD0A06920B3286840F48050286074
:10590000FDF756FF0646286810F4005F30D1FDF71A
:105910004FFF801B02280BE0104402582844025815
:1059200000440258044402580C440258744402587B
:1059300002D90320BDE8F09F286810F4005FE6D08C
:1059400016E0286820F480502860FDF731FF0646F5
:10595000286810F4005F0BD0FDF72AFF801B022897
:1059600002D90320BDE8F09F286810F4005FF3D14E
:10597000207810F0040F6CD0B14E306840F4807085
:105980003060FDF715FF8146306810F4807F0CD140
:10599000FDF70EFFA0EB0900642802D90320BDE843
:1059A000F09F306810F4807FF2D0A068A54E0128E7
:1059B00016D0D0B1052821D0306820F00100306029
:1059C000306820F004003060A06841F2883A60B38B
:1059D000FDF7EEFE8146306810F0020F17D038E078
:1059E000306840F001003060EEE7306820F00100E0
:1059F0003060306820F004003060E5E7306840F047
:105A000004003060306840F001003060DCE7FDF7F2
:105A1000CFFEA0EB0900504502D90320BDE8F09F5E
:105A2000306810F0020FF2D013E0FDF7C1FE81469E
:105A3000306810F0020F0CD0FDF7BAFEA0EB0900A1
:105A4000504502D90320BDE8F09F306810F0020FE6
:105A5000F2D1616AA1B3D8F80000DFF8EC9100F050
:105A60003800182809F10408A9F104067DD002299C
:105A700012D0286820F080702860FDF799FE044657
:105A8000286810F0007F1BD0FDF792FE001B022853
:105A90006CD90320BDE8F09F286820F08070286052
:105AA000FDF786FE8246286810F0007F0DD0FDF7D6
:105AB0007FFEA0EB0A00022803D90320BDE8F09F77
:105AC000BBE0286810F0007FF1D13868E16A20F06F
:105AD000F30020F4407040EA0110A16A08433860E6
