:020000040800F2
:10000000C01F002481030008EB8D0008D56D000897
:10001000E98D000801120008C19D000800000000E1
:100020000000000000000000000000002192000815
:100030009517000800000000318E00088592000826
:100040009B0300089B0300089B0300089B03000818
:100050009B0300089B0300089B0300089B03000808
:100060009B0300089B0300089B030008591200082B
:1000700065120008711200087D120008891200083C
:1000800095120008A11200089B030008AD18000893
:10009000B91800089B0300089B0300089B03000895
:1000A0009B0300089B0300089B0300089B030008B8
:1000B0009B0300089B0300089B0300089B030008A8
:1000C0009B0300089B0300089B030008B5900008F1
:1000D0009B030008919D00089D9D0008A99D0008B4
:1000E0009B0300089B030008000000009B0300081E
:1000F0009B030008659400089B030008AD120008EC
:100100009B0300089B0300089B0300089B03000857
:100110007D950008899500089B0300089B03000853
:10012000B9120008C5120008D1120008DD1200083B
:10013000E91200089B0300089B0300089B030008CA
:1001400000000000000000000000000000000000AF
:10015000F51200089B0300089B030008B59D0008EA
:100160009B0300089B0300089B0300089B030008F7
:100170009B0300089B0300089B0300089B030008E7
:100180009B0300089B030008959500089B0300084B
:100190009B0300089B0300089B0300089B030008C7
:1001A0009B0300089B0300089B0300089B030008B7
:1001B0009B0300089B0300089B0300089B030008A7
:1001C0009B0300089B0300089B0300089B03000897
:1001D0009B0300089B0300089B0300089B03000887
:1001E0009B0300089B0300089B0300089B03000877
:1001F0009B0300089B0300089B0300089B03000867
:100200009B0300089B0300089B0300089B03000856
:100210009B0300089B0300089B0300089B03000846
:100220009B0300089B0300089B03000800000000DC
:100230009B0300089B030008000000009B030008CC
:100240009B0300089B0300089B0300089B03000816
:100250009B0300089B0300089B0300089B03000806
:100260009B0300089B0300089B0300089B030008F6
:100270009B0300089B0300089B030008000000008C
:100280009B0300089B0300089B030008000000007C
:10029000000000009B03000800F002F800F060F886
:1002A0000AA090E8000C82448344AAF10107DA45D1
:1002B00001D100F055F8AFF2090EBAE80F0013F0C3
:1002C000010F18BFFB1A43F00103184734B20000B6
:1002D00054B200000A444FF0000C10F8013B13F038
:1002E000070408BF10F8014B1D1108BF10F8015B8F
:1002F000641E05D010F8016B641E01F8016BF9D182
:1003000013F0080F1EBF10F8014BAD1C0C1B09D1D8
:100310006D1E58BF01F801CBFAD505E014F8016B4A
:1003200001F8016B6D1EF9D59142D6D370470000DC
:100330000023002400250026103A28BF78C1FBD8EE
:10034000520728BF30C148BF0B6070471FB50AF085
:100350007BFF9DE8030000F073F91FBD10B510BDD1
:1003600000F000FA1146FFF7F1FF0AF02BFF00F052
:100370001EFA03B4FFF7F2FF03BC00F04FFA0000CF
:100380000948804709480047FEE7FEE7FEE7FEE729
:10039000FEE7FEE7FEE7FEE7FEE7FEE70448054965
:1003A000054A064B70470000659300089902000853
:1003B000C0130024C01F0024C01B0024C01B002445
:1003C00070B5064600F020F9056806F10B0020F034
:1003D0000704B4429CBF002070BD2B466A68BAB1C6
:1003E0001068A04210D304F1080188423CBF506855
:1003F000586007D35168101941601168091B0160EA
:1004000058601460101D70BD13465268002AE7D171
:100410002146284600F000F90028DED170BD53EADD
:10042000020C00F069802DE9F04B4FF00006002B24
:100430001FBFB3FA83F503FA05F424FA05F65E400C
:1004400012BF1643B2FA82F502FA05F4C5F120058F
:100450001EBF22FA05FC44EA0C04203556EA044C7F
:100460004FEA144418BF641C4FF000084FF0000915
:10047000904271EB030C39D3002919BFB1FA81F70F
:1004800001FA07F6B0FA80F700FA07F6C7F120077D
:100490001EBF20FA07FC46EA0C062037B6FBF4FC28
:1004A000A7EB0507103F07F01F0BCBF120060CFA56
:1004B0000BFB2CFA06F644BFB3460026202FA4BF40
:1004C0005E464FF0000B5BEA060C08BF4FF0010BD5
:1004D00019EB0B09ABFB027C48EB0608C01B06FBC3
:1004E00002CC0BFB03CC71EB0C01C1E70B460246BF
:1004F00041464846BDE8F08B13B54FF000004FF081
:100500000001AFF30080BDE81C40704710B5203AF1
:10051000C0F00B80B1E81850203AA0E81850B1E8BC
:100520001850A0E81850BFF4F5AF5FEA027C24BF72
:10053000B1E81850A0E8185044BF18C918C0BDE869
:1005400010405FEA827C24BF51F8043B40F8043B32
:1005500008BF7047D20728BF31F8023B48BF11F8E7
:10056000012B28BF20F8023B48BF00F8012B704741
:100570004FF000020429C0F0128010F0030C00F0CC
:100580001B80CCF1040CBCF1020F18BF00F8012B4A
:10059000A8BF20F8022BA1EB0C0100F00DB85FEA18
:1005A000C17C24BF00F8012B00F8012B48BF00F8E4
:1005B000012B70474FF0000200B513469446964653
:1005C000203922BFA0E80C50A0E80C50B1F1200166
:1005D000BFF4F7AF090728BFA0E80C5048BF0CC014
:1005E0005DF804EB890028BF40F8042B08BF704772
:1005F00048BF20F8022B11F0804F18BF00F8012BE4
:100600007047704770477047004870476813002470
:10061000704770477047704738B504460A46002057
:100620006946AFF30080002808BF38BD0246009934
:10063000204600F075F8012038BD012000F08AB88E
:10064000F8B5AFF30080054600200C46102000BF2F
:100650000646A819A0420DD9324669460020AFF3DC
:100660000080070008BF00F075F80098A04218BF8E
:100670000546C419FFF7C8FF05600746F01D20F0C6
:1006800007004619284600F00AF8B44208BFF8BD32
:10069000A21B31463868BDE8F84000F041B800219F
:1006A0000160C0E9011070471020704770B5044622
:1006B000051FFFF7A9FF0068002C14BF446870BD38
:1006C000002C18BFAC423CBF20466468F8D30168D8
:1006D0000A18AA4218BF456003D12A68054611448A
:1006E000016028684119A1421CBF6C6070BD61683F
:1006F000696021680844286070BD10B500F00CF8EE
:10070000006810BD10B5044600F006F8046010BD86
:1007100000487047601300240048704760130024AD
:10072000034640688C46002818BF88423CBF0346F9
:100730004068F8D318681844884207D00CF10300C9
:1007400020F00700001D411A521A0146081D0A60D8
:10075000FFF7ACBF10B500F039F8BDE8104000F06D
:100760002FB870477546FFF7D3FFAE4605006946C0
:10077000534620F00700854618B020B5FFF70EFE5F
:10078000BDE820404FF000064FF000074FF0000892
:100790004FF0000B21F00701AC46ACE8C009ACE813
:1007A000C009ACE8C009ACE8C0098D46704710B577
:1007B0000446AFF300802046BDE81040FFF7D9BDE6
:1007C000002801D000F02AB87047000010B50128B9
:1007D00005D0002103A000F027F8012010BD09A1D9
:1007E000F8E7000053494752544D454D3A204F75A4
:1007F00074206F662068656170206D656D6F727919
:10080000000000003A2048656170206D656D6F72D0
:100810007920636F727275707465640001491820E5
:10082000ABBEFEE72600020070B505460C460A2066
:1008300000E06D1C00F011F835B128780028F8D1DF
:1008400002E0641C00F009F814B120780028F8D107
:10085000BDE870400A20AFF3008008B569468DF806
:1008600000000320ABBE08BD03480122B0F85010C1
:10087000C06C02F056BE0000BC00002403480022F9
:10088000B0F85010C06C02F04CBE0000BC00002458
:1008900070B52DED028BFFF7F1FF802000F020FCFA
:1008A000552000F01DFC552000F01AFC484C20702B
:1008B000FFF7DAFF9FED478AB0EE480A00F09EFE90
:1008C000FFF7DCFF802000F00BFC552000F008FC57
:1008D000552000F005FC2070FFF7C6FFB0EE480A77
:1008E00000F08CFEFFF7CAFFB6217E2000F00AFC64
:1008F000FFF7BAFF9FED380A00F080FEFFF7BEFF5A
:10090000802000F0EDFB552000F0EAFB552000F0C0
:10091000E7FB2070FFF7A8FFB0EE480A00F06EFE7C
:10092000FFF7ACFF802000F0DBFB552000F0D8FB88
:10093000552000F0D5FB2070FFF796FFB0EE480A77
:1009400000F05CFE20781E2803D0FF20BDEC028B57
:1009500070BD002060701E4DB435FFF78FFF6078CA
:1009600000EB40004119285C497800F0CBFBFFF711
:100970007BFFB0EE480A00F041FEFFF77FFF607892
:1009800000EB4000285C40F0800000F0A9FB5520FF
:1009900000F0A6FB552000F0A3FB2070FFF764FFDA
:1009A000B0EE480A00F02AFE6078237800EB4001A0
:1009B00029444A789A4203D08978A2781143A170D9
:1009C000401CC0B260700628C7D30020BEE70000FC
:1009D000980000246F12833A0AD7A33D2DE9F04F07
:1009E00004462DED068B89B00020079008909FEDFE
:1009F000E7AAF0EE4A8AB0EE689A00F03DFEE44EB7
:100A000086ED050ADFF88C9304AFDFF88CA30DF1B7
:100A100004084FF07C5B00F02FFED6ED050ADF499D
:100A200030EE600A10EE100A884212DD9FEDDC0AFB
:100A300084ED060A9FEDDB0A84ED070A9FEDDA0AD2
:100A400084ED080A9FEDD98A9FEDD90A84ED090A41
:100A50007AE19FEDD80A00F0D1FDF0EE4A9A84EDDC
:100A600006AA84ED07AA84ED08AA0025F2E0FFF7A4
:100A700005FF922000F034FB0622122007A900F0A7
:100A800011FBFFF7F1FE9DF81D009DF81C10000200
:100A900000B2084300EE100AD6ED030AB8EEC00A11
:100AA00020EE200A84ED000A9DF81F009DF81E101C
:100AB000000200B2084300EE900A96ED031AF8EE29
:100AC000E00A60EE810AC4ED010A9DF821009DF85C
:100AD0002010000200B2084301EE900AF8EEE11A7D
:100AE00021EE811A84ED021A20EE000A00EEA00A1F
:100AF00001EE010A09F00EFEB0EE408A79EE889A06
:100B000000F06EF90822002007A900F0CBFA00F0EF
:100B10005DF99DF81C000F2840D19DF81F009DF83D
:100B20001E10000200B2084300EE100AF8EEC00AE0
:100B300096ED040A60EE800AC4ED030A94ED061AED
:100B400071EE200AC4ED060A9DF821009DF82010E0
:100B5000000200B2084300EE900AF8EEE00A60EEF0
:100B6000800AC4ED040A94ED071A71EE200AC4ED60
:100B7000070A9DF823009DF82210000200B20843E6
:100B800000EE900AF8EEE00A20EE800A84ED050AF5
:100B9000D4ED080A30EE800A84ED080A002D7DD0DD
:100BA000B4EEE88AF1EE10FA01DDF0EE488AB4EE18
:100BB000C98AF1EE10FA01D2B0EE489A002004EB97
:100BC000800191ED030A07EB8001D1ED000AB4EE3C
:100BD000E00AF1EE10FA01DD81ED000A08EB800178
:100BE000D1ED000AB4EEE00AF1EE10FA01D281ED87
:100BF000000A401CC0B20328E1D338EEC90A86EDD2
:100C0000060A002007EB8001D1ED000A08EB800105
:100C100091ED001A09EB800170EEC10AC1ED000AE6
:100C2000401CC0B20328EDD310EE100A584515DC65
:100C3000D9F80000504511DCD9F8040050450DDC0E
:100C4000D9F80800504509DC9FED5B0A00F0D6FC9E
:100C50006D1CADB2F0888542FFF409AFF28800EE5A
:100C6000102AB8EE400A89EE808A002000EE102A91
:100C700004EB8001B8EE400AD1ED060A80EE801A3E
:100C800081ED061A401CC0B20328EFD3FFF7F6FD32
:100C9000A22000F025FA022207A900E05FE022204E
:100CA00000F000FAFFF7E0FD9DF81C009DF81D1014
:100CB000C00040EA5110B0F5806F02DBA0F5006083
:100CC00000B200EE100AB4EE001AF8EEC00AB3EE5D
:100CD000070A00EE810A84ED090AB088401CB08042
:100CE000B06958453FF797AE35499FED340A38EE65
:100CF000400AB0EEC00A10EE100A8842F2DCD9F8C1
:100D000000005045EEDCD9F804005045EADCD9F883
:100D100008005045E6DC94ED060A2A49B0EEC00A08
:100D200010EE100A8842DDDC94ED070AB0EEC00A2E
:100D300010EE100A8842D5DC94ED080AB0EEC00A25
:100D400010EE100A8842CDDC9FED1F0AC0EE080AA3
:100D5000C4ED0B0A09B0BDEC068BBDE8F08FF0EED8
:100D6000488AB0EE489A002004EB800191ED030A16
:100D700007EB800181ED000A08EB800181ED000A9C
:100D8000401CC0B20328EFD337E70000000000008A
:100D9000980000240C1000249A99193E000040414C
:100DA000F2FA88BB7779ABBBE1CB96B92C09244129
:100DB00000008C420AD7A33B6F12033ACDCC1C41F2
:100DC0006666663F0AD7233CC3F51C4103480122EF
:100DD000B0F87C10806F02F0A4BB0000BC000024BF
:100DE00003480022B0F87C10806F02F09ABB00002C
:100DF000BC00002470B52DED028BFFF7F1FF4149D7
:100E0000002000F061F9FFF7E1FF9FED3F8AB0EEAF
:100E1000480A00F0F3FBFFF7E3FF3A49002000F037
:100E200053F9FFF7D3FFB0EE480A00F0E7FBFFF7F6
:100E3000D7FFB621142000F065F9FFF7C7FF9FED3B
:100E4000330A00F0DBFBFFF7CBFF2E49002000F058
:100E50003BF9FFF7BBFFB0EE480A00F0CFFBFFF70E
:100E6000BFFF2849002000F02FF9FFF7AFFFB0EED9
:100E7000480A00F0C3FB234C20780F2803D0FF2042
:100E8000BDEC028B70BD002060701E4DC635FFF7B3
:100E9000A7FF607800EB40004119285C497800F01A
:100EA00031F9FFF793FFB0EE480A00F0A7FBFFF718
:100EB00097FF6078134900EB4000285C00F004F9CC
:100EC000FFF784FFB0EE480A00F098FB60782278C4
:100ED00000EB40012944497891420BD0401EC0B23A
:100EE0006070084900EB4000B4310844A178807874
:100EF0000843A0706078401CC0B260700628C6D35A
:100F00000020BDE7980000246F12833A0AD7A33D62
:100F100070B5054629460D4838310C4608F049F9A8
:100F20000A48214608F045F9094C0020A070FFF757
:100F3000AFFCA1780843A070FFF75CFFA1780843DD
:100F4000A0702846FFF74AFDA07870BD0C00002471
:100F50009800002470B50446FFF790FC922000F042
:100F6000BFF84F490622122000F09CF8FFF77CFCE6
:100F70004B4DA5F11C0668782978000200B20843A1
:100F800000EE100AD6ED030AB8EEC00A60EE200AA1
:100F900094ED0B0A60EE800AC4ED000AE878A978A7
:100FA000000200B2084300EE900AB8EEE01AD6ED57
:100FB000030A21EE201A21EE001A84ED011A687945
:100FC0002979000200B20843308101EE100AB8EE20
:100FD000C11A61EE200A20EE800A84ED020AFFF7B2
:100FE000FFFE06222946022000F05CF8FFF7EEFE25
:100FF00068782978000200B2084300EE100AD4EDA8
:10100000060AB8EEC01A96ED040A51EE000AC4EDC5
:10101000030AE878A978000200B2084300EE900ABB
:1010200094ED071AF8EEE00A10EE801A84ED041A27
:1010300068792979000200B20843308100EE900AF5
:1010400094ED081AF8EEE00A10EE801A84ED051A05
:10105000FFF714FCA22000F043F8022229462220C8
:1010600000F020F8FFF700FC28786978C00040EA1B
:1010700051103081B0F5806F02DBA0F50060308147
:10108000B6F90800B4EE001A00EE100AF8EEC00A35
:10109000B3EE070A00EE810A84ED0A0A70BD000073
:1010A000B400002470B50D46144640F0800000F0F6
:1010B00017F806E0552000F013F805F8010B641E40
:1010C000E4B2002CF6D170BD10B50C4640F08000A3
:1010D00000F006F8552000F003F8207010BD000065
:1010E00001B582B04FF47A700123009001AA044840
:1010F00002A9006804F08BFC9DF804000EBD0000FE
:101100000C00002410B50C46FFF7EAFF2046BDE8AE
:101110001040FFF7E5BFB6EE002A92ED020AB0EEEE
:10112000421AD2ED030A00EE401AD0ED001AD0EDBB
:10113000013A00EEE01A21EE213A92ED011AD2EDC9
:10114000001A61EE002A41EEE02A61EE200A41EE2B
:10115000800A02EEA33A90ED020AF0EE002A00EEB9
:10116000803A23EE220A81ED000A92ED010AD2EDC7
:10117000021A92ED001AD2ED030A20EE213AD0EDC8
:10118000003A90ED014A01EE203A23EE233AF0EEC8
:10119000423A40EE403A40EEE03A61EEA00A41EEBB
:1011A000400A03EE843A90ED020A00EE803A23EE04
:1011B000220A81ED010AD2ED010AD2ED031A92ED65
:1011C000020A92ED001A20EEA13A60EE211AD0ED4B
:1011D000003A00EEE02A01EE403A41EE201A90ED8E
:1011E000011A00EE402A23EE233A90ED020A01EEA6
:1011F000813A02EE003A23EE220A81ED020A70479C
:10120000FEE790ED010AD1ED020A91ED011A20EE00
:10121000200AD0ED020A00EEC10A82ED000A90ED2C
:10122000020AD1ED000A91ED021A20EE200AD0ED5B
:10123000000A00EEC10A82ED010A90ED000AD1ED2C
:10124000010A91ED001A20EE200AD0ED010A00EE0D
:10125000C10A82ED020A7047014800F031BF000068
:10126000740C0024014800F02BBF0000EC0C00249B
:10127000014800F025BF0000640D0024014800F083
:101280001FBF0000DC0D0024014800F019BF000062
:10129000540E0024014800F013BF0000CC0E0024BF
:1012A000014800F00DBF0000440F0024014800F089
:1012B00007BF00000C0B0024014800F001BF000034
:1012C0001C0A0024014800F0FBBE0000940A002420
:1012D000014800F0F5BE0000840B0024014800F036
:1012E000EFBE0000FC0B0024014800F0E9BE000046
:1012F000D4040024014800F0E3BE00004C050024A3
:10130000264A016891422CD0254A914229D0254A8B
:10131000914226D0244A914223D0244A914220D09F
:10132000234A91421DD0234A91421AD0224A914227
:1013300017D0224A914214D0214A914211D0214A19
:1013400091420ED0204A91420BD0204A914208D0BF
:101350001F4A914205D01F4A914202D01E4A914233
:1013600017D11E4BCAB2103AA3FB02321209DFF8A2
:1013700070C002F007031CF80330C365032A04D9C8
:101380006FF30901091D816506E06FF309018165AD
:1013900002E021F0FF018165806D7047100002407E
:1013A0002800024040000240580002407000024005
:1013B00088000240A0000240B80002401004024031
:1013C00028040240400402405804024070040240D5
:1013D00088040240A0040240B8040240ABAAAAAAB2
:1013E0008CB3000801680123DFF894C0CAB26145DC
:1013F0001BD0DFF890C0614517D0DFF88CC0614585
:1014000013D0DFF888C061450FD0DFF884C0614594
:101410000BD0DFF880C0614507D0DFF87CC06145A4
:1014200003D0DFF878C0614511D1A2F108011C4A50
:10143000A2FB012109091B4A02EB810202661A4A3A
:10144000426601F01F0103FA01F181667047DFF87F
:101450005CC0103AACFB02C21209DFF854C0614410
:10146000A82900D80832134901EB8201016612490C
:10147000416602F01F0103FA01F181667047000026
:10148000085402581C54025830540258445402580C
:10149000585402586C5402588054025894540258BC
:1014A000CDCCCCCC0058025880580258ABAAAAAA7E
:1014B000F0FBFDBF000802408008024001794A1E8F
:1014C000072A28D8144B0168994214D0134B99422B
:1014D00011D0134B99420ED0124B99420BD0124BA4
:1014E000994208D0114B994205D0114B994202D034
:1014F000104B994206D1104901EB8201C1660F4998
:10150000016705E00E4901EB8201C1660D490167E3
:101510000121914041677047085402581C540258F9
:101520003054025844540258585402586C540258CB
:101530008054025894540258005902584059025895
:101540000009024040090240014600208B698A6A76
:10155000002B0FD0B3F5005F1DD08AB3012A30D025
:10156000022A2ED0032A04D1C96A11F0807F00D04C
:10157000012070471AB1012A07D0022AF9D1C96A9D
:1015800011F0807FF5D001207047C96AB1F1C07FAA
:10159000FAD1012070475AB1012A0BD0022A07D094
:1015A000032AF7D1C96AB1F1C07FF3D10120704796
:1015B00001207047C96A11F0807FFAD0012070477E
:1015C000FFE701207047000008B50A4801780029AC
:1015D0000FD10121017008494A680092009A4369BD
:1015E0009A4202D20269521C02614968416100219B
:1015F000017008BD58000024001000E00A4841684E
:101600000A4AD2ED010A4268521AF8EE601A01EE57
:10161000102AB8EE411A60EE211AB4EEE11AF1EE8A
:1016200010FAF0D370470000001000E058000024CA
:1016300000B52DED028B81B00D494968009101681C
:10164000009A511A00EE101A0A49F8EE400A91ED7C
:10165000010AB8EE400A80EE808A00990160FFF727
:10166000B3FF01B0B0EE480ABDEC028B00BD000034
:10167000001000E05800002410B500F043F80C48BA
:101680009FED0C1A90ED000A8188C08800EE901A38
:10169000B8EE400AF8EE600A00EE810A00EE900A09
:1016A0009FED051AF8EE600A00EE810A10BD0000F9
:1016B000880000246F12833ABD3786350D490A68C9
:1016C00042F080720A600C4900224A600B6843F0C5
:1016D00001030B6009494843094948604FF47A7394
:1016E000B0FBF3F38B60054BB0FBF3F0C8600A610D
:1016F000FFF76ABFFCED00E0001000E040420F0081
:10170000580000242DE9F84F204840680090FFF76A
:101710005BFFDFF87C904FF0FF334FF0000A00983A
:101720005146D9F81020E2FB030104460D46C9E9F1
:101730000E01D9F804B00023204629465A46FEF788
:101740006EFE06460F463046A0FB0B2107FB0B1131
:1017500006FB0A13A71A65EB030809F1300426609B
:101760000023D9F80860414638463246FEF757FE56
:1017700080B2A0807043381A68EB0A01D9F80C20B7
:101780000023FEF74CFEE080BDE8F88F001000E07B
:1017900058000024704790ED000AD1ED000A91ED49
:1017A000011A20EE200AD0ED010A00EE810AD0EDE8
:1017B000020A91ED021A00EE810A7047B6EE002A85
:1017C00092ED020AB0EE421AD2ED030A00EE401A80
:1017D000D0ED001AD0ED013A00EEE01A21EE213AE8
:1017E00092ED011AD2ED001A61EE002A41EEA02A14
:1017F00061EE200A41EEC00A02EEA33A90ED020A21
:10180000F0EE002A00EE803A23EE220A81ED000A73
:1018100092ED010AD2ED021A92ED001AD2ED030AFE
:1018200020EE213AD0ED003A90ED014A01EE603A07
:1018300023EE233AF0EE423A40EE403A40EEE03AF0
:1018400061EEA00A41EE000A03EE843A90ED020A2E
:1018500000EE803A23EE220A81ED010AD2ED010A60
:10186000D2ED031A92ED020A92ED001A20EEA13A8F
:1018700060EE211AD0ED003A00EEE02A01EE003AC7
:1018800041EE601A90ED011A00EE402A23EE233A51
:1018900090ED020A01EE813A02EE003A23EE220AAE
:1018A00081ED020A704772B6FEE70000014801F0C0
:1018B000C5B90000B8020024014801F0BFB900001A
:1018C00058030024416B0268D2F884306FF38F0311
:1018D00043EA8103C2F884300268D2F88430B0F859
:1018E00038C023F47F0343EA0C43C2F88430826B90
:1018F00011440268D2F888306FF38F0343EA810302
:10190000C2F888300268D2F88830B0F83CC023F4BE
:10191000FE0343EA0C43C2F88830C26B01EB42017C
:101920000268D2F8A0306FF38F0343EA8103C2F854
:10193000A0300268D2F8A030B0F840C023F4FE0313
:1019400043EA0C43C2F8A030436C026C02FB031163
:101950000268D2F8B0306FF38F0343EA8103C2F814
:10196000B0300268D2F8B030B0F848C023F4FE03BB
:1019700043EA0C43C2F8B030C36C826C02FB031123
:101980000268D2F8AC306FF38F0343EA8103C2F8E8
:10199000AC30436D026D02FB03110268D2F8F030E7
:1019A0006FF38F0343EA8103C2F8F0300268D2F884
:1019B000F030B0F858C023F47C1343EA0C43C2F86B
:1019C000F030826D01EB42020168D1F8C0306FF354
:1019D0008F0343EA8202C1F8C0200168D1F8C02019
:1019E000B0F85C3022F47C1242EA0342C1F8C02015
:1019F0000168D1F8C02090F8603022F07C5242EAB1
:101A00000362C1F8C020416B294A02EB8101C16623
:101A1000826B01EB82020267C36B02EBC302426777
:101A2000D0F844C0036C03FB0CF302EB8302826723
:101A3000D0F84CC0836C03FB0CF302EB8302C2674B
:101A4000D0F854C0036D03FB0CF302EB8302C0F823
:101A50008020836D02EBC303C0F88430D0F85CC0F3
:101A6000826E0CFB02FC03EB8C03C0F88830D0F8CC
:101A700060C00CFB02F203EB8202C0F890200D4B19
:101A80009A420AD9D0F89C1041F02001C0F89C106D
:101A9000032180F89810012070478A4206D900225D
:101AA0000A60091DD0F890308B42F9D800207047A9
:101AB00000AC0040FCD300402DE9F84F044601F093
:101AC0003DFD00905CB194F8350002280AD08020DA
:101AD0006065002084F834000120BDE8F88F012003
:101AE000BDE8F88FB6492068B64EB74F8842DFF898
:101AF000DC82DFF8DC92DFF8DCA2DFF8DCB226D093
:101B0000B04224D0B84222D0404520D048451ED013
:101B100050451CD058451AD0B04A904217D0B04A10
:101B2000904214D0AF4A904211D0AF4A90420ED0AA
:101B3000AE4A90420BD0AE4A904208D0AD4A904295
:101B400005D0AD4A904202D0AC4A90420AD1026818
:101B500022F01E0202602068426922F08002426187
:101B6000256804E0026822F00E0202602568206801
:101B700088423ED0B0423CD0B8423AD0404538D0FE
:101B8000484536D0504534D0584532D0934A9042DB
:101B90002FD0934A90422CD0924A904229D0924A18
:101BA000904226D0914A904223D0914A904220D030
:101BB000904A90421DD0904A90421AD08F4A90424B
:101BC00017D08F4A904214D08E4A904211D08E4A3C
:101BD00090420ED08D4A90420BD08D4A904208D050
:101BE0008C4A904205D08C4A904202D08B4A904257
:101BF00004D1206E026822F480720260704920686D
:101C0000884226D0B04224D0B84222D0404520D0CD
:101C100048451ED050451CD058451AD06F498842BF
:101C200017D06F49884214D06E49884211D06E494E
:101C300088420ED06D4988420BD06D49884208D049
:101C40006C49884205D06C49884202D06B49884271
:101C500004D1016821F00101016003E0016821F075
:101C600001010160286810F0010F14D001F066FC3A
:101C70000099401A05280AD920206065032084F8BD
:101C80003500002084F834000120BDE8F88F286872
:101C900010F0010FEAD14A4A01212068904226D073
:101CA000B04224D0B84222D0404520D048451ED072
:101CB00050451CD058451AD0484B984217D0484B35
:101CC000984214D0474B984211D0474B98420ED0BF
:101CD000464B98420BD0464B984208D0454B984211
:101CE00005D0454B984202D0444B98420AD1A06D92
:101CF0004FF03F0C94F85C3003F01F030CFA03F331
:101D0000836007E0A06D94F85C3003F01F0301FAD4
:101D100003F34360206890423ED0B0423CD0B842CA
:101D20003AD0404538D0484536D0504534D0584553
:101D300032D02A4A90422FD0294A90422CD0294AA8
:101D4000904229D0284A904226D0284A904223D057
:101D5000274A904220D0274A90421DD0264A9042DE
:101D60001AD0264A904217D0254A904214D0254ACC
:101D7000904211D0244A90420ED0244A90420BD077
:101D8000234A904208D0234A904205D0224A9042EA
:101D900002D0224A90420BD1626EA06E5060E06E7B
:101DA00030B1026822F480720260226F606F50606E
:101DB00084F83510002084F83400BDE8F88F000066
:101DC000100002402800024040000240580002403B
:101DD0007000024088000240A0000240B8000240AB
:101DE000100402402804024040040240580402400B
:101DF0007004024088040240A0040240B80402407B
:101E0000085402581C540258305402584454025882
:101E1000585402586C540258805402589454025832
:101E20002DE9F05F002808D090F83510022907D07E
:101E3000802141650120BDE8F09F0120BDE8F09FB1
:101E4000DFF81CE20168874BDFF81CC27145874C44
:101E5000874D884E884FDFF82482DFF82492DFF820
:101E600024A2DFF824B2894A25D0994223D06145C3
:101E700021D0A1421FD0A9421DD0B1421BD0B942EE
:101E800019D0DFF80CE2714515D0DFF808E2714592
:101E900011D0DFF804E271450DD041450BD0494522
:101EA00009D0DFF8F8E1714505D0514503D0594517
:101EB00001D0914232D14FF0040E80F835E06848ED
:101EC000814221D099421FD061451DD0A1421BD033
:101ED000A94219D0B14217D0B94215D06C488142FD
:101EE00012D06C4881420FD06B4881420CD04145E2
:101EF0000AD0494508D06948814205D0514503D0F0
:101F0000594501D0914204D1086820F001000860D1
:101F1000A3E0086820F0010008609EE0D1F800E02E
:101F20002EF00E0EC1F800E0DFF834E101687145D3
:101F300025D0994223D0614521D0A1421FD0A9428A
:101F40001DD0B1421BD0B94219D0DFF844E1714530
:101F500015D0DFF840E1714511D0DFF83CE1714563
:101F60000DD041450BD0494509D0DFF830E171452E
:101F700005D0514503D0594501D0914206D1D1F841
:101F800000E02EF0010EC1F800E005E0D1F800E01D
:101F90002EF0010EC1F800E0DFF8C4E001687145E1
:101FA00039D0994237D0614535D0A14233D0A942CA
:101FB00031D0B1422FD0B9422DD0354B99422AD0E1
:101FC000344B994227D0344B994224D0414522D0FA
:101FD000494520D0314B99421DD051451BD0594520
:101FE00019D0914217D02E4A914214D02D4A9142D5
:101FF00011D02D4A91420ED02C4A91420BD02C4A3E
:10200000914208D02B4A914205D02B4A914202D0EE
:102010002A4A914218D1016E0A6822F480720A603D
:10202000816D90F85C2002F01F0301229A404A6003
:10203000426E816E5160C16E31B10A6822F48072C5
:102040000A60026F416F5160012180F83510002154
:1020500080F83410016D01B188470020BDE8F09F81
:102060001000024028000240400002405800024098
:102070007000024088000240A0000240400402407C
:102080005804024088040240A0040240B804024000
:10209000B8000240100402402804024070040240CC
:1020A000085402581C5402583054025844540258E0
:1020B000585402586C540258805402589454025890
:1020C0002DE9F04F83B00446002002904FF41651E2
:1020D000FD480068B0FBF1F00190A56D2E682968FD
:1020E000FA4F2068DFF8E8A3DFF8E8B3B842DFF87A
:1020F000E883DFF8E8932DD0524690422AD05A4622
:10210000904227D0404525D0484523D0F44A9042FC
:1021100020D0F44A90421DD0F34A90421AD0F34A9C
:10212000904217D0DFF8C8C3604513D0F14A9042FF
:1021300010D0DFF8C4E370450CD0F04A904209D0CB
:10214000EF4A904206D0EF4A904203D0EE4B9842BD
:1021500040F0408294F85C10082201F01F0102FA5E
:1021600001F1314241D0B84228D0504526D05845DF
:1021700024D0404522D0484520D0D94988421DD09E
:10218000D84988421AD0D849884217D0D7498842BE
:1021900014D0D749884211D0D64988420ED0D649AA
:1021A00088420BD0D549884208D0D549884205D00D
:1021B000D449884202D0D449884203D1016801F051
:1021C000040102E0016801F0080171B1016821F029
:1021D0000401016094F85C0000F01F0002FA00F0B6
:1021E000A860606D40F00100606594F85C0000F04C
:1021F0001F01012000FA01F1314234D02068B842B9
:1022000028D0504526D0584524D0404522D04845B6
:1022100020D0B34A90421DD0B24A90421AD0B24A5E
:10222000904217D0B14A904214D0B14A904211D096
:10223000B04A90420ED0B04A90420BD0AF4A904282
:1022400008D0AF4A904205D0AE4A904202D0AE4A82
:1022500090427DD1406910F0800F04D0A960606D7C
:1022600040F00200606594F85C0000F01F0104205B
:1022700000FA01F1314234D02068B84228D05045EC
:1022800026D0584524D0404522D0484520D0944AF5
:1022900090421DD0934A90421AD0934A904217D050
:1022A000924A904214D0924A904211D0914A904260
:1022B0000ED0914A90420BD0904A904208D0904A5A
:1022C000904205D08F4A904202D08F4A904245D129
:1022D000006810F0020F04D0A960606D40F00400A7
:1022E000606594F85C0000F01F01102000FA01F115
:1022F000314259D02068B84228D0504526D05845A0
:1023000024D0404522D0484520D0754A90421DD067
:10231000744A90421AD0744A904217D0734A90423D
:1023200014D0734A904211D0724A90420ED0724A31
:1023300090420BD0714A904208D0714A904205D029
:10234000704A904202D0704A904209D1006800E081
:1023500002E000F0080006E0006884E70068C0E7DB
:10236000006800F00400F8B1A9602068016811F469
:10237000802F0DD0006810F4002F04D0A16C99B10B
:102380002046884710E0216C71B1204688470BE059
:10239000016811F4807F03D1016821F00801016018
:1023A000216C09B12046884794F85C0000F01F01B9
:1023B000202000FA01F131426FD02068B84228D0C5
:1023C000504526D0584524D0404522D0484520D0FD
:1023D000434A90421DD0434A90421AD0424A90420A
:1023E00017D0424A904214D0414A904211D0414AFB
:1023F00090420ED0404A90420BD0404A904208D0C2
:102400003F4A904205D03F4A904202D03E4A904215
:1024100003D1006800F0100002E0006800F0020044
:10242000D8B3A96094F8350004280DD0206801685D
:1024300011F4802F37D0006810F4002F2ED0E16BFC
:1024400059B32046884764E02068016821F01601EE
:1024500001602068416921F080014161206C08B968
:10246000A06C20B12068016821F00801016094F897
:102470005C003F2100F01F0001FA00F0A86001207D
:1024800084F83500002084F83400216D00297BD0C9
:1024900003B02046BDE8F04F084737E0616CA9B3B0
:1024A0002046884735E0016811F4807F09D1016832
:1024B00021F010010160012084F83500002084F82B
:1024C0003400E16B11B322E004000024100002404C
:1024D00028000240400002405800024070000240C4
:1024E00088000240A0000240B800024010040240F0
:1024F0002804024040040240580402407004024094
:1025000088040240A0040240B804024001E02046D2
:102510008847606D002837D0606D10F0010F51D0F2
:10252000042084F835002068B84228D0504526D0D1
:10253000584524D0404522D0484520D0AB49884258
:102540001DD0AB4988421AD0AA49884217D0AA495F
:10255000884214D0A949884211D0A94988420ED096
:10256000A84988420BD0A849884208D0A749884288
:1025700005D0A749884202D0A649884205D1016802
:1025800021F00101016004E096E0016821F0010101
:10259000016021680298019A401C0290904203D881
:1025A000086810F0010FF5D1086810F0010F03D092
:1025B000032084F8350002E0012084F83500002073
:1025C00084F83400E16C002976D003B02046BDE8E1
:1025D000F04F0847904B984214D0904B984211D03E
:1025E0008F4B98420ED08F4B98420BD08E4B984217
:1025F00008D08E4B984205D08D4B984202D08D4B1F
:10260000984259D103684FF0040A94F85C6006F0D0
:102610001F060AFA06FA1AEA010F5AD013F0040F3D
:1026200057D0C5F804A013F4004F12D013F4803F24
:1026300007D0216C00293FD003B02046BDE8F04F01
:102640000847A16C002937D003B02046BDE8F04F01
:10265000084713F0200F34D12068B84227D07649BC
:10266000884224D07549884221D040451FD0484532
:102670001DD05E4988421AD05D49884217D05D4915
:10268000884214D05C49884211D060450FD05C4923
:1026900088420CD070450AD05B49884207D05B491C
:1026A000884204D0904202D05A49884205D101683C
:1026B00021F00801016004E083E0016821F00401D9
:1026C0000160216C00297CD003B02046BDE8F04FAA
:1026D00008474FF0020A0AFA06FA1AEA010F5FD019
:1026E00013F0020F5CD0C5F804A013F4004F12D011
:1026F00013F4803F07D0E16B002974D003B020466B
:10270000BDE8F04F0847616C00296CD003B020464B
:10271000BDE8F04F084713F0200F39D12068B842C8
:1027200027D04549884224D04449884221D0404599
:102730001FD048451DD02D4988421AD02C498842C7
:1027400017D02C49884214D02B49884211D06045BB
:102750000FD02B4988420CD070450AD02A498842B4
:1027600007D02A49884204D0904202D029498842A1
:1027700004D1016821F01401016003E0016821F037
:102780000A010160012084F83500002084F834003B
:10279000E16B002927D003B02046BDE8F04F084781
:1027A0000822B2400A421ED013F0080F1BD0016865
:1027B00021F00E01016094F85C0000F01F0101207F
:1027C00000E010E000FA01F16960606584F835000E
:1027D000002084F83400E16C002904D003B02046C6
:1027E000BDE8F04F084703B0BDE8F08F8800024015
:1027F000A0000240B8000240100402402804024039
:102800004004024058040240700402408804024020
:10281000A0040240B8040240085402581C54025854
:102820003054025844540258585402586C540258B8
:10283000805402589454025828000240400002403C
:102840002DE9F05F044600F079FE0646002C6AD0C0
:10285000DC4F022220680025DFF86C83DFF86C93E0
:10286000B842DFF86CA3DFF86CB328D0DA498842AD
:1028700025D0404523D0484521D050451FD058454C
:102880001DD0D64988421AD0D549884217D0D5499B
:10289000884214D0D449884211D0D44988420ED0FD
:1028A000D34988420BD0D349884208D0D2498842C4
:1028B00005D0D249884202D0D14988427ED184F8DD
:1028C000352084F83450B84228D0C349884225D0F6
:1028D000404523D0484521D050451FD058451DD0F4
:1028E000BE4988421AD0BE49884217D0BD498842A5
:1028F00014D0BD49884211D0BC4988420ED0BC4991
:1029000088420BD0BB49884208D0BB49884205D0D9
:10291000BA49884202D0BA49884207D1016821F0F9
:102920000101016006E00120BDE8F09F016821F08F
:10293000010101602068006810F0010F11D000F063
:10294000FDFD801B052807D920206065032084F841
:1029500035000120BDE8F09F2068006810F0010FED
:10296000EDD122681068A7490840E368A168D4F84F
:1029700014C01943236943EA0C031943A36919439B
:10298000E3691943236A19430843616A042903D19F
:10299000236BE16A194308439B4909686FF30F01F0
:1029A000B1F1005F11D36168A1F12903052B0AD9A8
:1029B000163B032B07D9083B012B00E02CE002D982
:1029C0004F39032901D840F4801010602068406915
:1029D00020F00701606A40EA010604280ED1A06ACF
:1029E0000643E06A50B12046FEF7AEFD30B140200C
:1029F0006065012084F83500BDE8F09F20684661DD
:102A00002046FEF77DFC94F85C103F2201F01F0188
:102A100002FA01F181605BE07C49884214D07C4B72
:102A2000984211D07B4B98420ED07B4B98420BD0F2
:102A30007A4B984208D07A4B984205D0794B98420D
:102A400002D0794B98427DD188420CD0704988429F
:102A500009D07049884206D06F49884203D06F4937
:102A6000884200D06E4984F8352084F834500268DA
:102A70006FF31012A168402979D0802979D0002104
:102A8000E36841EAD301236941EAD301636941EA7A
:102A9000D301A36941EAD301E36941EAD301236A7F
:102AA00041EA131111430160604920680144604804
:102AB000A0FB011000098000E0652046FEF720FC25
:102AC00094F85C10012201F01F0102FA01F141604B
:102AD0002068B84242D0404988423FD040453DD06E
:102AE00048453BD0504539D0584537D03B498842BE
:102AF00034D03B49884231D03A4988422ED03A49B5
:102B000088422BD03949884228D03949884225D07B
:102B10003849884222D0384988421FD037498842F4
:102B20001CD03749884219D03849884216D03849D4
:102B3000884213D03749884210D0374988420DD097
:102B4000364900E018E0884208D03549884205D06F
:102B50003449884202D0344988422CD12046FEF7BD
:102B600041FCA06880280FD00FE000E001E01021B8
:102B700086E74FF4804183E740206065032084F8B6
:102B800035000120BDE8F09F6560216E2079086066
:102B9000616EA06E48606068401E072808D8204615
:102BA000FEF78CFCE06E0560216F606F486002E00C
:102BB000E566256765676565012084F835000020B6
:102BC000BDE8F09F10000240400002405800024063
:102BD000700002408800024028000240A00002402D
:102BE000B8000240100402402804024040040240A1
:102BF000580402407004024088040240A0040240CD
:102C0000B80402403F8010FE0010005C08540258D7
:102C10001C54025830540258445402585854025814
:102C20006C5402588054025894540258F8ABFDA7D3
:102C3000CDCCCCCC70477047704770472DE9F04F32
:102C400083B00446BC4F38688007391D096800EA24
:102C500081792068016D01F47041426D02EA010A38
:102C6000016D01F00F01426D02EA010B016D01F0EF
:102C7000F001426D11400291016D01F07151426D00
:102C800002EA0108016D01F06071426D114001918D
:102C9000456D066D15F4807F09D016F4807F06D04F
:102CA000B9150165002038602046FFF7C6FF15F40E
:102CB000806F10D016F4806F0DD02068D0F8DC1033
:102CC000D0F8E42011404FF48062026500203860A3
:102CD000204600F020FBB9F1000F0CD0216829F448
:102CE000401020F0404008654FEA9970386049462E
:102CF0002046FFF79FFFBAF1000F0CD021682AF49D
:102D0000401020F0404008654FEA9A703860514604
:102D1000204600F002FBBBF1000F0CD021682BF421
:102D2000401020F0404008654FEA9B7038605946DB
:102D3000204600F0E8FA029868B12168029820F471
:102D4000401020F0404008650298800F38600299DA
:102D5000204600F0D9FA15F4006F0BD016F4006F7E
:102D600008D021684FF400600865002038602046D4
:102D700000F0D4FA15F4007F10D016F4007F0DD0C7
:102D80002068D0F8D810D0F8E02011404FF400723D
:102D9000026500203860204600F0BEFA15F4002FCE
:102DA0000BD016F4002F08D021684FF400200865DE
:102DB00000203860204600F0A5FA15F4803F0BD0C3
:102DC00016F4803F08D021684FF480300865002059
:102DD0003860204600F09EFA15F4802F0BD016F4D0
:102DE000802F08D021684FF48020086500203860CB
:102DF000204600F08EFA15F4003F0ED016F4003F86
:102E00000BD021684FF40030086500203860D4F8FA
:102E10009C0040F08000C4F89C00019868B12168D3
:102E2000019820F4401020F0404008650198800F80
:102E3000386001992046FFF7FFFEB8F1000F0ED071
:102E4000216828F4401020F0404008654FEA98704F
:102E50003860D4F89C0040EA0800C4F89C00206860
:102E6000A0F18041B1F520415CD16068816811F02A
:102E7000030F57D0016A01F00F01426A1140026A44
:102E800002F03002436A03EA0207026A02F4C072E7
:102E9000436A03EA0208026A02F4FC42436A03EA54
:102EA0000205026A02F4F022436A03EA0206D0F83D
:102EB0002490D0F820A019B10162204600F026FA33
:102EC0002FB1606807623946204600F021FA19F0F8
:102ED000400F0DD01AF0400F0AD06068C16B090C8A
:102EE000C26B02F03F0240230362204600F00FFA5B
:102EF000B8F1000F06D06068C0F820804146204637
:102F000000F003FA35B160680562D4F89C002843EC
:102F1000C4F89C0036B160680662D4F89C00304367
:102F2000C4F89C00D4F89C00002802D02046FFF78B
:102F300082FE03B0BDE8F08F10A800402DE9F041FB
:102F400094B004464C22A14901A8FDF7DFFA5CB118
:102F50009F4F2068B84202D100F58070606094F8FD
:102F60009800002620B108E014B00120BDE8F081EF
:102F700084F89960204600F02DF92068816921F0DD
:102F80001001816100F0DAFA0546206880694FF08F
:102F9000030810F0080F15D000F0D0FA401B0A28E3
:102FA0000BD9D4F89C0040F00100C4F89C0084F8D0
:102FB000988014B00120BDE8F0812068806910F08D
:102FC000080FE9D12068816941F00101816100F0B9
:102FD000B5FA05462068806910F0010F15D100F0A0
:102FE000ADFA401B0A280BD9D4F89C0040F0010030
:102FF000C4F89C0084F8988014B00120BDE8F081EA
:103000002068806910F0010FE9D02068816941F0E3
:1030100002018161207C012839D02068816941F05A
:1030200040018161607C012837D02068816921F4EA
:1030300080418161A07C012835D02068816941F4FC
:103040008051816120688169A26821F44071114337
:1030500081612068816921F0A40181612068016992
:1030600021F010010161E068012822D030B302286C
:103070002BD02068816941F080018161206801695D
:1030800041F010010161E068032818D022E02068B7
:10309000816921F040018161C4E72068816941F4C0
:1030A00080418161C6E72068816921F48051816196
:1030B000C8E72068816941F0040181610AE0206865
:1030C000816941F02001816104E02068816941F05B
:1030D00020018161207EE169401E491E400640EAD0
:1030E0000120216A491E0843A18A491E40EA014085
:1030F0002168C861A068B0F5407F0FD1E16AA06A7D
:10310000491E401E40EA0120216B491E40EA011081
:10311000A18C491E40EA01402168C860206E30B190
:103120002068D0F8C010626E1143C0F8C010216E44
:10313000E06DC84201A90AD02068D0F8C820A36E6B
:1031400022F0070251F823301A43C0F8C820206C3F
:1031500050B12068D0F8BC20636C22F0070251F80F
:1031600023301A43C0F8BC20A06C58B12068D0F8B6
:10317000BC20E36C22F0700251F8233042EA0312C3
:10318000C0F8BC20206D58B12068D0F8BC20636D19
:1031900022F4E06251F8231042EA0121C0F8BC1089
:1031A0002068B84204D16068816821F00301816021
:1031B000C4F89460C4F89C60012084F8980020460C
:1031C000FEF780FB14B0BDE8F081000040B30008BA
:1031D00000A000402DE9F043B7B00446142132A806
:1031E000FDF7E8F9C02102A8FDF7E4F9414D0026FA
:1031F0003E494FF0805220680C3D3D4F4FF0020891
:103200003C4C88424FF0090937D151130020CDE9D9
:1032100002101E9202A800F0C1FD08B1FEF743FBA8
:103220003868401C3860012807D1206840F480705D
:103230002060206800F480700190286840F0010050
:103240002860286800F0010001904FF4C0503290CF
:10325000CDF8CC8034963596CDF8D89032A9264852
:1032600000F05EF800221320114600F03DFB132011
:1032700000F02CFB37B0BDE8F08320498842F9D13B
:1032800000204FF40041CDE902101E9202A800F088
:1032900085FD08B1FEF707FB3868401C386001283F
:1032A00007D1206840F480702060206800F48070AE
:1032B0000190286840F002002860286800F00200B1
:1032C000019060203290CDF8CC8034963596CDF8C0
:1032D000D89032A90A4800F023F8002214201146A1
:1032E00000F002FB142000F0F1FAC3E700A0004058
:1032F00000000024EC4402580000025800A40040E2
:103300000004025870477047704770477047704715
:1033100070477047704770477047704770470000AC
:103320002DE9F84F0022DFF8E4C10B68002B7DD0B7
:10333000DFF8DCB14FF0B04A4FF0010E4FF0030858
:103340004FF00F090B680EFA02F52B40002B6ED0E0
:103350000C7904F00304012C01D0022C11D18668F1
:10336000540008FA04F7BE43CF6807FA04F4344364
:1033700084604468AC430D79C5F3001595402C4337
:1033800044604C6838EA040409D0C568540008FA5F
:1033900004F6B5438E6806FA04F42C43C4600C7935
:1033A00004F00304022C0DD1D40800EB84052E6A2E
:1033B0005407E40E09FA04F7BE430F6907FA04F450
:1033C00034432C620568540008FA04F6B5430E79BC
:1033D00006F0030606FA04F42C4304604C6814F467
:1033E000403F78D0DBF8004044F00204CBF80040C6
:1033F000DBF8004004F00204009422F0030404F11E
:10340000B046D6F8084495072D0F09FA05F724EAC7
:103410000707A0F1B044B4F5003463D0A0F1B04484
:10342000B4F5013460D0A0F1B04401E058E052E0BE
:10343000B4F502345AD0A0F1B044B4F5033457D0F7
:10344000A0F1B044B4F5043454D0A0F1B044B4F5C4
:10345000053451D0A0F1B044B4F506344ED0A0F1FB
:10346000B044B4F507344BD0A0F1B044B4F50834FF
:1034700048D0A0F1B044B4F5093445D00A24AC409A
:103480003C43C6F80844DAF800409C434D6815F404
:10349000801F00D01C43CAF80040DAF804409C4367
:1034A0004D6815F4001F00D01C43CAF80440DCF836
:1034B00004409C434D6815F4003F00D01C43CCF8F9
:1034C0000440DCF800409C434D6815F4803F00D078
:1034D0001C43CCF80040521C0B68D3407FF432AF41
:1034E000BDE8F88F0024CAE70124C8E70224C6E734
:1034F0000324C4E70424C2E70524C0E70624BEE78A
:103500000724BCE70824BAE70924B8E7800000587C
:10351000F44402580069084201D00120704700209D
:103520007047002A01D081617047090481617047AA
:1035300001480068000C70470010005C014880687A
:1035400070470000AC02002490F84120202A01D0EE
:103550000220704790F84020012A20D0012280F8F4
:103560004020242280F841200268136823F00103E0
:1035700013600268136823F48053136002681368B1
:103580001943116001680A6842F001020A602021B3
:1035900080F84110002180F8401000207047022080
:1035A000704790F84120202A01D00220704790F8FF
:1035B0004020012A1ED0012280F84020242280F8D9
:1035C00041200268136823F0010313600268136846
:1035D00023F4706343EA0121116001680A6842F034
:1035E00001020A60202180F84110002180F840107B
:1035F000002070470220704770B50446002C04D0AC
:1036000094F84100002510B106E0012070BD84F857
:103610004050204600F056F8242084F841002068ED
:10362000016821F001010160606820F0706120688C
:1036300001612068816821F400418160E06801280F
:1036400033D02168A06840F404408860E068022814
:1036500031D02068416821F40061416020684168F0
:1036600041F4004141F0007141602068C16821F4DB
:103670000041C160616920690843A16940EA0120F5
:103680002168C860216AE0690843216808602068F1
:10369000016841F0010101606564202084F8410067
:1036A000256384F84250002070BD2168A06840F472
:1036B00000408860CAE72068416841F400614160C9
:1036C000CCE7000030B5B7B00446142132A8FCF7AF
:1036D00071FFC02102A8FCF76DFF1D4920688842D8
:1036E00034D11C4C206840F480002060206800F435
:1036F0008000019008210020CDE9021000252395CB
:1037000002A800F04BFB08B1FEF7CDF811480838CD
:10371000016841F002010160006800F002000190C0
:103720004FF4406032901220339001203490359550
:103730000420369032A90848FFF7F2FD206840F4D3
:1037400080002060206800F48000019037B030BD18
:1037500000580040E84402580004025802488168BA
:103760000278114481607047AC02002410B5032038
:1037700000F0F0F801F010FA0F4A1168C1F30323CA
:103780000E49CB5C03F01F03D840126802F00F0211
:10379000895C0B4A01F01F0120FA01F1116009490F
:1037A0000860002000F010F808B1012010BD00F002
:1037B0007DF8002010BD00001844025852B20008E5
:1037C000080000240400002470B504460F4D2A7838
:1037D000002A0CD04FF47A700D49B0FBF2F0096862
:1037E000B1FBF0F002F016FB18B1012070BD012012
:1037F00070BD102C07D200222146501E00F074F834
:103800006C60002070BD012070BD0000AC0200247F
:1038100004000024124A4178116012490A6822F01B
:1038200001020A600B1F42681A60027BC37A12070A
:1038300042EA0362837A42EAC342437B42EA83421A
:10384000837B42EA4342C37B42EA0342437A42EA31
:103850000322037A007842EA43021043086070476B
:1038600098ED00E0A0ED00E0BFF35F8F0448016831
:1038700021F4803101600349002008607047000096
:1038800024ED00E094ED00E0064940F001000860FE
:103890000548016841F480310160BFF34F8FBFF3E9
:1038A0006F8F704794ED00E024ED00E082B0064891
:1038B000016841F002010160006800F0020001901F
:1038C000052002B000F046B8F444025800280ADB94
:1038D000012200F01F0102FA01F14009800000F10D
:1038E000E020C0F8001170474DF8044D184B1B68DC
:1038F000C3F30223C3F1070CBCF1040F01D94FF04D
:10390000040C1C1D072C01D2002300E0DB1E012447
:1039100004FA0CFCACF1010C0CEA0101994004FA28
:1039200003F35B1E1A401143002807DB00F1E0207F
:10393000090180F800145DF8044B704700F00F0097
:1039400000F1E020090180F8141D5DF8044B704778
:103950000CED00E000F00700064A11684FF6FF0387
:10396000194041EA002040F0FD7040F08060106096
:10397000704700000CED00E070B515490A6812F0C0
:10398000040F0DD00A6822F0070210430860FFF709
:10399000D5FD04460F4D286810F4005F09D014E0EF
:1039A000096801F00701814201D0012070BD0020AB
:1039B00070BDFFF7C3FD001BB0F57A7F01D9012070
:1039C00070BD286810F4005FF3D0002070BD0000C7
:1039D0000C4802580448025810B501F091F8054906
:1039E0000968054AC1F30211515C01F01F01C8408A
:1039F00010BD00002044025852B2000869490A680C
:103A000002F003020968C1F30531674B1B68C3F379
:103A10000013DFF898C1DCF800C0CCF3CC0C1CFB21
:103A200003F300EE103AB8EE400A002972D09FED81
:103A3000601A604B002AF7EE000A46D0DFED5E1AEE
:103A4000012A68D0022A67D002EE101A1968F8EE2F
:103A5000422A81EEA22AC1F3080101EE901AF8EE83
:103A6000611A40EE011A31EEA00A22EE000A19682E
:103A7000C1F3462101EE101AB8EE411A31EE201AB8
:103A8000C0EE011ABCEEE11A80ED001A1968C1F30C
:103A9000064101EE101AB8EE411A31EE201AC0EEBE
:103AA000011ABCEEE11A80ED011A1968C1F3066132
:103AB00001EE101AB8EE411A71EE200A80EE201ABB
:103AC000BCEEC10A80ED020A70473C4AD2F800C041
:103AD0001CF0200F21D01268DFF8E4C0C2F3C1024D
:103AE0002CFA02F201EE902AF8EE612A01EE901A09
:103AF0001968F8EE611A82EEA12AC1F3080101EEFD
:103B0000901AF8EE611A40EE011A31EEA00A22EE88
:103B1000000AACE741E016E029E001EE901ADFED83
:103B2000292A1968F8EE611A82EEA12AC1F3080168
:103B300001EE901AF8EE611A40EE011A31EEA00A79
:103B400022EE000A93E702EE101A1968F8EE422AF4
:103B500081EEA22AC1F3080101EE901AF8EE611A73
:103B600040EE011A31EEA00A22EE000A7FE701EED4
:103B7000901ADFED152A1968F8EE611A82EEA12A73
:103B8000C1F3080101EE901AF8EE611A40EE011A35
:103B900031EEA00A22EE000A69E7002101604160CF
:103BA00081607047284402582C4402583C44025813
:103BB00000000039384402580024744A0044025876
:103BC0000090D0030024744C0024F44A69490A6828
:103BD00002F003020968C1F30551674B1B68C3F388
:103BE0000023DFF898C1DCF800C0CCF3CC0C1CFB40
:103BF00003F300EE103AB8EE400A002972D09FEDB0
:103C0000601A604B002AF7EE000A46D0DFED5E1A1C
:103C1000012A68D0022A67D002EE101A1968F8EE5D
:103C2000422A81EEA22AC1F3080101EE901AF8EEB1
:103C3000611A40EE011A31EEA00A22EE000A19685C
:103C4000C1F3462101EE101AB8EE411A31EE201AE6
:103C5000C0EE011ABCEEE11A80ED001A1968C1F33A
:103C6000064101EE101AB8EE411A31EE201AC0EEEC
:103C7000011ABCEEE11A80ED011A1968C1F3066160
:103C800001EE101AB8EE411A71EE200A80EE201AE9
:103C9000BCEEC10A80ED020A70473C4AD2F800C06F
:103CA0001CF0200F21D01268DFF8E4C0C2F3C1027B
:103CB0002CFA02F201EE902AF8EE612A01EE901A37
:103CC0001968F8EE611A82EEA12AC1F3080101EE2B
:103CD000901AF8EE611A40EE011A31EEA00A22EEB7
:103CE000000AACE741E016E029E001EE901ADFEDB2
:103CF000292A1968F8EE611A82EEA12AC1F3080197
:103D000001EE901AF8EE611A40EE011A31EEA00AA7
:103D100022EE000A93E702EE101A1968F8EE422A22
:103D200081EEA22AC1F3080101EE901AF8EE611AA1
:103D300040EE011A31EEA00A22EE000A7FE701EE02
:103D4000901ADFED152A1968F8EE611A82EEA12AA1
:103D5000C1F3080101EE901AF8EE611A40EE011A63
:103D600031EEA00A22EE000A69E7002101604160FD
:103D700081607047284402582C4402584444025839
:103D800000000039404402580024744A004402589C
:103D90000090D0030024744C0024F44A2DE9F84F1D
:103DA0000446002500262068C04310F0006FFE4F37
:103DB000DFF8F8830DD1A06E88B1B0F5801F13D065
:103DC000B0F5001F17D0B0F5401F00D00125CDB1D0
:103DD0002E462088C04310F4807F1CD039E038681C
:103DE00040F400303860F2E7022104F1080005F0E9
:103DF00021F80546EBE7022104F1280005F0BAF8A6
:103E00000546E4E7D8F80000A16E20F4401008430E
:103E1000C8F80000DDE7A06D052817D2DFE800F044
:103E200003080F171700386840F4003038600EE0C0
:103E3000002104F1080004F0FDFF054607E0002121
:103E400004F1280005F096F8054600E0012535B19B
:103E50002E462088C04310F4007F09D018E0D8F81F
:103E60000000A16D20F007000843C8F80000F0E74B
:103E7000E06D802820D003DC90B1402805D114E00B
:103E8000C02803D0B0F5807F00D00125DDB12E46DB
:103E90002088DFF81C93C04310F4806F1CD02FE003
:103EA000386840F400303860F0E7002104F1080081
:103EB00004F0C0FF0546E9E7002104F1280005F001
:103EC00059F80546E2E7D8F80000E16D20F4E0700B
:103ED0000843C8F80000DBE7D4F8A800B0F5800F6D
:103EE00020D004DC90B1B0F5001F06D113E0B0F58E
:103EF000C00F03D0B0F5000F00D00125CDB12E4684
:103F00002088C04310F4006F1DD030E0386840F4C2
:103F100000303860F2E7002104F1080004F08AFF65
:103F20000546EBE7002104F1280005F023F80546DB
:103F3000E4E7D9F80000D4F8A81020F460000843A2
:103F4000C9F80000DCE7D4F8AC00B0F1007F20D065
:103F500004DC90B1B0F1807F06D113E0B0F1407F76
:103F600003D0B0F1806F00D00125CDB12E4620687E
:103F7000C04310F0007F1DD027E0386840F40030C7
:103F80003860F2E7002104F1080004F053FF054611
:103F9000EBE7002104F1280004F0ECFF0546E4E71C
:103FA000D9F80000D4F8AC1020F0E0600843C9F85C
:103FB0000000DCE7E06C30B110280CD020280FD0D6
:103FC000302800D0012595B12E462088C04310F43A
:103FD000805F14D026E0386840F400303860F2E7A3
:103FE000022104F1080004F025FF0546EBE77148C3
:103FF0000168E26C21F0300111430160E5E7206EB9
:10400000B0F5005F20D004DC90B1B0F5805F06D140
:1040100013E0B0F5405F03D0B0F5804F00D001252C
:10402000CDB12E462088C04310F4005F1CD031E093
:10403000386840F400303860F2E7002104F10800ED
:1040400004F0F8FE0546EBE7002104F1280004F037
:1040500091FF0546E4E7D8F80000216E20F4E04027
:104060000843C8F80000DDE7606EB0F5403F0FD0B0
:1040700007DC68B1B0F5803F12D0B0F5003F06D143
:1040800015E0B0F5802F03D0B0F5A02F00D00125AA
:10409000A5B12E462088C04310F4804F17D02DE0E4
:1040A000012104F1080004F0C5FE0546F0E70121F6
:1040B00004F1280004F05EFF0546E9E7D8F80000A7
:1040C000616E20F4E0200843C8F80000E2E7D4F86D
:1040D000B000B0F1405F0FD007DC68B1B0F1805F95
:1040E00012D0B0F1005F06D115E0B0F1804F03D0DF
:1040F000B0F1A04F00D00125A5B12E462088C043C5
:1041000010F4004F18D022E0012104F1080004F05F
:1041100091FE0546F0E7012104F1280004F02AFF92
:104120000546E9E7D9F80000D4F8B01020F0E040E7
:104130000843C9F80000E1E7206F30B1B0F1805FBB
:104140000BD0B0F1005F0DD0012595B12E4620684F
:10415000C04310F0807F15D01FE0386840F4003075
:104160003860F2E7012104F1080004F063FE05461F
:10417000EBE7D8F80000216F20F040500843C8F862
:104180000000E4E7A06C30B1012819D002281CD04F
:10419000032800D00125FDB12E462068DFF818B0B5
:1041A000C04310F4800F09E02C44025850440258D8
:1041B000584402584C4402581044025814D030E07D
:1041C000386840F400303860E5E7022104F1080067
:1041D00004F030FE0546DEE7F8480168A26C21F0E5
:1041E000030111430160D8E7F548006840F480718D
:1041F000F3480160FFF7A2F98246F148006810F425
:10420000807F0CD1FFF79AF9A0EB0A00642801D94E
:10421000032504E0EA48006810F4807FF2D045B13D
:104220002E462078DFF89CA3C04310F0010F60D029
:1042300070E0DFF894A3DAF80000B4F8B41000F4EA
:10424000407001F44071884211D0DAF8000020F487
:104250004070DAF8001041F48031CAF80010DAF842
:10426000001021F48031CAF80010CAF80000D4F818
:10427000B400B0F5807F16D1FFF760F90090DAF84E
:10428000000010F0020F0ED1FFF758F90099411A03
:1042900041F28830814201D9032504E0DAF80000B8
:1042A00010F0020FF0D00DB12E46BAE7D4F8B400EA
:1042B0004FF4407181430FD0DBF8000020F47C50B4
:1042C000CBF80000DAF80000B4F8B410C1F30B0129
:1042D0000843CAF80000A4E7DBF8001020F440709F
:1042E00020F0704021F47C5141EA1010CBF800001E
:1042F000E8E7E06F18280BD005DC48B108280FD09C
:10430000102804D113E0202802D0282800D001254D
:10431000A5B12E462078C04310F0020F17D02FE031
:10432000012104F1080004F085FD0546F0E70121B4
:1043300004F1280004F01EFE0546E9E7DAF8000063
:10434000E16F20F038000843CAF80000E2E7A06FF0
:10435000062812D2DFE800F012030A12121201211D
:1043600004F1080004F066FD054607E0012104F1B0
:10437000280004F0FFFD054600E0012535B12E467A
:104380002078C04310F0040F09D022E0DAF80000D2
:10439000A16F20F007000843CAF80000F0E7D4F846
:1043A0009400062812D2DFE800F012030A1212125B
:1043B000012104F1080004F03DFD054607E001215C
:1043C00004F1280004F0D6FD054600E0012535B1D2
:1043D0002E462078C04310F0200F0AD020E0D9F8F4
:1043E0000000D4F8941020F007000843C9F800003A
:1043F000EFE7D4F89000B0F1405F0FD007DC68B170
:10440000B0F1805F12D0B0F1005F06D115E0B0F1DD
:10441000804F03D0B0F1A04F00D00125A5B12E46AA
:104420002078C04310F0400F18D02EE0002104F196
:10443000080004F0FFFC0546F0E7022104F1280023
:1044400004F098FD0546E9E7DAF80000D4F890108A
:1044500020F0E0400843CAF80000E1E7D4F89C00EF
:10446000B0F5406F0FD007DC68B1B0F5806F12D0A7
:10447000B0F5006F06D115E0B0F5805F03D0B0F560
:10448000A05F00D00125A5B12E462078C04310F0D2
:10449000800F18D02EE0002104F1080004F0CAFCBF
:1044A0000546F0E7022104F1280004F063FD05460B
:1044B000E9E7D9F80000D4F89C1020F4E050084354
:1044C000C9F80000E1E7D4F8A000B0F5C04F0FD064
:1044D00007DC68B1B0F5005F12D0B0F5804F06D1AF
:1044E00015E0B0F5004F03D0B0F5204F00D0012506
:1044F000A5B12E462078C04310F0080F18D02CE04C
:10450000002104F1080004F095FC0546F0E70221C3
:1045100004F1280004F02EFD0546E9E7D9F8000073
:10452000D4F8A01020F460400843C9F80000E1E787
:10453000D4F88400B0F5805F06D1022104F1280090
:1045400004F018FD00B10126DAF80000D4F8841058
:1045500020F440500843CAF800002078C04310F00F
:10456000100F14D1D4F89800B0F5807F06D1022145
:1045700004F1280004F0FEFC00B10126D9F8000087
:10458000D4F8981020F440700843C9F8000020685F
:10459000C04310F4002F0BD1D4F8A400B0B1B0F593
:1045A000803F1AD0B0F5003F00D00125E5B12E467E
:1045B0002068C04310F4802F20D02DE04C440258D6
:1045C000004802585444025870440258002104F133
:1045D000080004F02FFC0546E8E7022104F128005A
:1045E00004F0C8FC0546E1E7D9F80000D4F8A410AF
:1045F00020F440300843C9F80000D9E7D4F8880017
:10460000B0F5801F0ED0B0F5001F10D0B0F5401FE0
:1046100000D0012595B12E462068C04310F4803F9C
:1046200016D01DE0386840F400303860F2E7012110
:1046300004F1280004F09EFC0546EBE7DAF80000E0
:10464000D4F8881020F440100843CAF80000E3E7CB
:10465000206D58B1B0F5803F0DD0012595B12E46A3
:104660002068C04310F0005F14D01AE0386840F4AE
:1046700000303860F2E7022104F1080004F0DAFBB0
:104680000546EBE76E480168226D21F48031114345
:104690000160E5E7022104F1280004F06BFC00B1A1
:1046A00001262068C04310F4003F0ED1D4F88000EA
:1046B00048B1B0F5807F0ED0B0F5007F03D0B0F5E3
:1046C000407F00D001255DB12E462068C04310F424
:1046D000801F0FD016E0386840F400303860F2E7F1
:1046E000DAF80000D4F8801020F440700843CAF8CB
:1046F0000000EAE7D8F80000616F20F000400843AE
:10470000C8F800002068C04310F0805F08D1DBF8D3
:104710000000D4F8B81020F480400843CBF8000023
:104720002068C04310F4001F07D1D8F80000E16EE4
:1047300020F080700843C8F800002068C04310F0E3
:10474000804F0CD1DBF8000020F40040CBF80000D3
:10475000DBF80000D4F8BC100843CBF80000206858
:10476000C04310F0004F06D135480168626D21F05A
:104770004051114301602068C04310F4000F08D17C
:10478000DAF80000D4F88C1020F440000843CAF88E
:10479000000020790025C04300F00100284306D125
:1047A000002104F1080004F045FB00B10646207921
:1047B000C04300F00200284306D1012104F10800A3
:1047C00004F038FB00B106462079C04300F0040035
:1047D000284306D1022104F1080004F02BFB00B1AC
:1047E00006462079C04300F00800284306D1002186
:1047F00004F1280004F0BEFB00B106462079C04356
:1048000000F01000284306D1012104F1280004F033
:10481000B1FB00B106462079C04300F020002843D8
:1048200006D1022104F1280004F0A4FB00B10646E1
:1048300016B10120BDE8F88F0020BDE8F88F000018
:104840004C4402582DE9F05F04460D46002C17D069
:10485000DFF88492D9F8000000F00F00A84212D2CD
:10486000D9F8000020F00F002843C9F80000D9F85B
:10487000000000F00F00A84205D00120BDE8F09F25
:104880000120BDE8F09F2078944E10F0040F0AD06C
:104890002069316801F07001884204D9316821F043
:1048A00070010843306020788D4F10F0080F0AD057
:1048B0006069396801F07001884204D9396821F0D3
:1048C000700108433860207810F0100F0AD0A069FA
:1048D000396801F4E061884204D9396821F4E06163
:1048E000084338602078DFF8FCB110F0200F0DD0BD
:1048F000E069DBF8001001F07001884206D9DBF8AE
:10490000001021F070010843CBF80000207810F06F
:10491000020F0AD0E068316801F00F01884204D923
:10492000316821F00F0108433060207810F0010F4A
:1049300051D03068A16820F470600843306060682E
:104940006949022808D003280DD0012812D009682F
:1049500011F0040F34D011E0096811F4003F0DD1BB
:104960000120BDE8F09F096811F0007F06D1012009
:10497000BDE8F09F096811F4807F1ED0DFF86CA1BC
:10498000DAF8001021F007010843CAF80000FEF72A
:10499000D5FD8046DAF80000616800F03800B0EB21
:1049A000C10F18D0FEF7CAFDA0EB080141F2883014
:1049B000814208D90320BDE8F09F0120BDE8F09FA7
:1049C0000120BDE8F09FDAF80000616800F03800CF
:1049D000B0EBC10FE6D1207810F0020F0AD0E068EA
:1049E000316801F00F01884204D2316821F00F01D3
:1049F00008433060D9F8000000F00F00A8420FD93A
:104A0000D9F8000020F00F002843C9F80000D9F8B9
:104A1000000000F00F00A84202D00120BDE8F09F86
:104A2000207810F0040F0AD02069316801F070017D
:104A3000884204D2316821F0700108433060207848
:104A400010F0080F0AD06069396801F070018842DF
:104A500004D2396821F0700108433860207810F0E2
:104A6000100F0AD0A069396801F4E061884204D2CD
:104A7000396821F4E06108433860207810F0200F95
:104A80000DD0E069DBF8001001F07001884206D219
:104A9000DBF8001021F070010843CBF8000000F0B3
:104AA0007BF83168C1F3032211498A5C02F01F02CE
:104AB000D040326802F00F02895C0E4A01F01F01FB
:104AC00020FA01F111600C4908600C480068BDE84B
:104AD000F05FFEF779BE0000002000521844025833
:104AE0001C44025820440258004402581044025802
:104AF00052B200080800002404000024B002002480
:104B00004DF804ED00F048F80B4A11680B4BC1F367
:104B10000321595C01F01F0120FA01F11068084AD5
:104B200000F00F00185C00F01F0021FA00F0106088
:104B3000044A11605DF804FB1844025852B20008A0
:104B400008000024040000244DF804EDFFF7D8FF0E
:104B500005490968054AC1F30211515C01F01F01C2
:104B6000C8405DF804FB00001C44025852B2000823
:104B70004DF804EDFFF7C4FF05490968054AC1F384
:104B80000221515C01F01F01C8405DF804FB0000E8
:104B90001C44025852B200084DF8044D69480068A0
:104BA000DFF8A4C1694B10F038014ED008294FEA54
:104BB0002C1047D0102959D0182943D164480168D6
:104BC00001F003010068C0F30510624A126802F0A8
:104BD0000102614C2468C4F3CC0414FB02F200EE21
:104BE000102AB8EE400A00287BD0DFED5C0A5C4A50
:104BF000B7EE001AA9B39FED5B2A012974D00229F0
:104C000071D001EE900A1068F8EE611AC2EE212A06
:104C1000C0F3080001EE900AF8EE611A40EE201A87
:104C200031EE810A22EE800A1068C0F34620401C53
:104C300000EE900AF8EE600A80EE201ABCEEC10A7F
:104C400010EE100A5DF8044B7047186810F0200F42
:104C500008D018685DF8044BC0F3C1002CFA00F0CE
:104C6000704707E05DF8044B604670473E485DF8CA
:104C7000044B7047196811F0200F1CD01968C1F35C
:104C8000C1012CFA01F101EE901AF8EE612A01EE51
:104C9000900A1068F8EE611A82EEA12AC0F30800AB
:104CA00001EE900AF8EE611A40EE201A31EE810A08
:104CB00022EE000AB8E701EE900ADFED2C2A106818
:104CC000F8EE611A82EEA12AC0F3080001EE900A04
:104CD000F8EE611A40EE201A31EE810A22EE000A47
:104CE000A2E72BE000E013E001EE900A1068F8EE76
:104CF000611AC2EE212AC0F3080001EE900AF8EE14
:104D0000611A40EE201A31EE810A22EE800A8BE70A
:104D100001EE900ADFED162A1068F8EE611A82EEB5
:104D2000A12AC0F3080001EE900AF8EE611A40EEE5
:104D3000201A31EE810A22EE000A75E75DF8044B75
:104D400000207047104402580090D00300440258DD
:104D5000284402582C4402583444025800000039B8
:104D6000304402580024744A00127A000024744C23
:104D70000024F44A2DE9F05F0446002C11D020787D
:104D8000DFF8F883FE4F10F0010FFE4D6BD0D8F81E
:104D9000000000F038003968102823D0182803D00C
:104DA00006E00120BDE8F09F01F00300022819D0C1
:104DB0006068B0F5803F1ED010B3B0F5A02F28D0AA
:104DC000286820F480302860286820F4802028603B
:104DD000606878B3FEF7B2FB0646286810F4003F1F
:104DE00020D040E0286810F4003F3CD0606830BB21
:104DF0000120BDE8F09F286840F480302860E7E794
:104E0000286820F480302860286820F480202860FA
:104E1000DEE7286840F480202860286840F480306D
:104E20002860D5E7FEF78AFB801B642803D903209E
:104E3000BDE8F09F04E0286810F4003FF2D012E0D3
:104E4000FEF77CFB0646286810F4003F0BD0FEF707
:104E500075FB801B642802D90320BDE8F09F2868F9
:104E600010F4003FF3D1207841F2030AC64E10F04F
:104E7000020F4BD0D8F8000000F038003968A0B11C
:104E8000182802D111F0030F0FD0E068002878D065
:104E9000296821F0190108432860FEF74FFB81467D
:104EA000286810F0040F41D04DE0286810F0040F7E
:104EB00001D0E06868B12868E16820F01900084373
:104EC0002860FEF73BFB8146286810F0040F03D0F2
:104ED0000FE00120BDE8F09FFEF730FBA0EB0900DA
:104EE000022802D90320BDE8F09F286810F0040FC3
:104EF000F2D0FEF71DFB504510D82069402806D09F
:104F0000316821F47C3141EA0030306051E0306892
:104F100020F47C3040F4003030604AE03068217C7E
:104F200020F0FE4040EA0160306042E0FEF706FB00
:104F3000A0EB0900022802D90320BDE8F09F2868F1
:104F400010F0040FF2D0FEF7F3FA504511D82069A3
:104F5000402806D0316821F47C3141EA00303060CD
:104F600027E0306820F47C3040F40030306020E0EE
:104F700007E03068217C20F0FE4040EA01603060AC
:104F800017E0286820F001002860FEF7D7FA814674
:104F9000286810F0040F0CD0FEF7D0FAA0EB09003F
:104FA000022802D90320BDE8F09F286810F0040F02
:104FB000F2D1207810F0100F45D0D8F8000000F0A2
:104FC00038003968DFF8C4B1082813D0182803D195
:104FD00001F0030001280DD0E069A8B3286840F073
:104FE00080002860FEF7AAFA8146286810F4807FC6
:104FF0002BD037E0286810F4807F05D0E069802846
:1050000002D00120BDE8F09FFEF792FA504510D87B
:10501000206A202806D0316821F0F84141EA8060FA
:10502000306056E0306820F0F84040F0804030605A
:105030004FE0DBF8000094F8201020F07C5040EAAC
:105040000160CBF8000044E02CE0FEF777FAA0EB1B
:105050000900022802D90320BDE8F09F286810F457
:10506000807FF2D0FEF764FA504510D8206A2028DD
:1050700006D0316821F0F84141EA8060306028E0D4
:10508000306820F0F84040F08040306021E0DBF8EC
:10509000000094F8201020F07C5040EA0160CBF82A
:1050A000000016E0286820F080002860FEF746FA2D
:1050B0000646286810F4807F0BD0FEF73FFA801B6D
:1050C000022802D90320BDE8F09F286810F4807FF1
:1050D000F3D1207810F0080F3AD0DFF8B49060696F
:1050E000D8B1D9F8000040F00100C9F80000FEF77F
:1050F00025FA0646D9F8000010F0020F28D1FEF775
:105100001DFA801B022802D90320BDE8F09FD9F8C0
:10511000000010F0020FF2D01AE0D9F8000020F0E1
:105120000100C9F80000FEF709FA0646D9F80000A8
:1051300010F0020F0CD0FEF701FA801B022802D9F2
:105140000320BDE8F09FD9F8000010F0020FF2D163
:10515000207810F0200F3DD0A06920B3286840F4DB
:1051600080502860FEF7EAF90646286810F4005FD0
:1051700030D1FEF7E3F9801B02280BE010440258FF
:105180002844025800440258044402580C4402586F
:105190007444025802D90320BDE8F09F286810F437
:1051A000005FE6D016E0286820F480502860FEF703
:1051B000C5F90646286810F4005F0BD0FEF7BEF96B
:1051C000801B022802D90320BDE8F09F286810F454
:1051D000005FF3D1207810F0040F6CD0B14E30682E
:1051E00040F480703060FEF7A9F98146306810F411
:1051F000807F0CD1FEF7A2F9A0EB0900642802D948
:105200000320BDE8F09F306810F4807FF2D0A068E2
:10521000A54E012816D0D0B1052821D0306820F045
:1052200001003060306820F004003060A06841F276
:10523000883A60B3FEF782F98146306810F0020FB9
:1052400017D038E0306840F001003060EEE7306899
:1052500020F001003060306820F004003060E5E7A5
:10526000306840F004003060306840F00100306089
:10527000DCE7FEF763F9A0EB0900504502D90320F3
:10528000BDE8F09F306810F0020FF2D013E0FEF797
:1052900055F98146306810F0020F0CD0FEF74EF938
:1052A000A0EB0900504502D90320BDE8F09F30680B
:1052B00010F0020FF2D1616AA1B3D8F80000DFF854
:1052C000EC9100F03800182809F10408A9F104064F
:1052D0007DD0022912D0286820F080702860FEF767
:1052E0002DF90446286810F0007F1BD0FEF726F940
:1052F000001B02286CD90320BDE8F09F286820F02D
:1053000080702860FEF71AF98246286810F0007F46
:105310000DD0FEF713F9A0EB0A00022803D90320F1
:10532000BDE8F09FBBE0286810F0007FF1D138683D
:10533000E16A20F0F30020F4407040EA0110A16A15
:1053400008433860208E4FF47E42616B401E491E38
:10535000C0F3080002EA41210843218FD201491E0F
:1053600002EA0141084394F83C10491E120202EA85
:1053700001610843C9F80000306820F00100306086
:10538000D8F80000A16C6FF3CF0040EAC100C8F864
:1053900000003068216C20F00C0008433060306859
:1053A000616C20F0020008433060306840F48030C7
:1053B0003060306840F400303060306840F4802065
:1053C0003060306840F001003060286801E01DE086
:1053D00016E040F080702860FEF7B0F804462868B8
:1053E00010F0007F5BD1FEF7A9F8001B022802D95C
:1053F0000320BDE8F09F286810F0007FF3D04EE056
:10540000286810F0007F7FF471AF48E03A68D9F85F
:105410000000012921D0A36A02F0030199421CD1A6
:10542000E16AC2F30512914217D1226BC0F3080161
:10543000521E914211D1616BC0F34622491E914226
:105440000BD1A16BC0F30642491E914205D1E16B1D
:10545000C0F30660491E814202D00120BDE8F09FE2
:10546000D8F80000C0F3CC00A16C814217D030689E
:1054700020F001003060FEF761F80546FEF75EF8A7
:10548000A842FBD0D8F80000A16C6FF3CF0040EA2F
:10549000C100C8F80000306840F001003060002012
:1054A000BDE8F09F0048025870440258304402584A
:1054B000704700002DE9F041044621680A694B69F4
:1054C00002EA0305D1F80880002094F8816013F403
:1054D000006F0BD012F0080F08D0886940F400600C
:1054E0008861204600F092FABDE8F08105F04001A5
:1054F00005F02002114309D115F0040F06D0616FA9
:1055000020468847216F20468847012005F0450145
:10551000012903D1216F20468847012005F026018B
:10552000022903D1616F2046884701200028DBD182
:1055300015F0080F4FF0010763D02068816941F032
:10554000080181612068816941F010018161206852
:10555000816941F4006181612068016921F00801DD
:1055600001612068806810F4404F28D1B4F86A00C7
:1055700028B3E0680F2807D92068006B616E0860C7
:10558000606E001D606611E0072807D92068008E54
:10559000616E0880606E801C606607E0206890F88D
:1055A0003000616E0870606E401C6066B4F86A007E
:1055B000401EA4F86A00B4F86A000028D9D1204639
:1055C00003F07EFD84F88170D4F8840020B1204679
:1055D000FFF76EFFBDE8F081052E08D0042E0BD03A
:1055E000032EF7D1204600F012FCBDE8F0812046E2
:1055F00000F00EFCBDE8F081204600F0E7F9BDE8C0
:10560000F08115F4587FFAD015F0400F0AD0D4F885
:10561000840040F00400C4F884002068816941F0EF
:105620004001816115F4007F0AD0D4F8840040F075
:105630000100C4F884002068816941F4007181612F
:1056400015F4807F0AD0D4F8840040F00800C4F834
:1056500084002068816941F48071816115F0200F18
:105660000AD0D4F8840040F08000C4F88400206898
:10567000816941F020018161D4F884000028BED006
:105680002068016821F0010101602068016921F0B2
:105690006B0121F4407101614FF4404030EA080091
:1056A00006D084F881702046FFF702FFBDE8F08144
:1056B0002068816821F4404181600F4DE06F50B156
:1056C0000565E06FFCF7ACFB28B1D4F8840040F02E
:1056D0004000C4F88400A06F0028E7D00565A06FE3
:1056E000FCF79EFB0028E1D0D4F8840040F0400095
:1056F000C4F88400BDE8F081859100082DE9F041EF
:105700000446002C12D00025A562DFF864812068D1
:10571000584E594F40450CD0B0420AD0B84208D03C
:10572000E0680F2805D90120BDE8F0810120BDE81F
:10573000F081204603F033FD01462068404505D046
:10574000B04203D0B84201D0082907D8404503D061
:10575000B04201D0B84204D1102902D90120BDE8DD
:10576000F08194F8810020B984F88050204600F040
:1057700085F8022084F881002068016821F0010189
:1057800001602068816801F4F812A169B1F1806FAD
:105790000ED16168B1F5800F01D1A36B23B139B986
:1057A000A16BB1F1805F03D1016841F480510160C8
:1057B000606810F4800F0AD0E068072807D32068DB
:1057C0000168236D21F480711943016004E02068B1
:1057D000016821F480710160A16AE0690843E16B0E
:1057E00011430843E168084321688860616A606B7F
:1057F000A2690843A16B1143084321690843616909
:105800000843216A084361680843E16C0843A168C2
:105810000843A16C0843A16D08432168C860606813
:1058200068B92068816821F4C05141F40061816049
:105830002068816821F4C06141F480618160206842
:10584000016D21F001010165606810F4800F06D040
:105850002068C168626D21F000411143C160C4F845
:105860008450012084F881000020BDE8F081000010
:105870000030014000380040003C00402DE9F04F6E
:10588000B7B00446142132A8FAF794FEC02102A84A
:10589000FAF790FE4849206888427DD181140020A3
:1058A000CDE90210012704971520059002260696DF
:1058B000079608964FF0C008CDF824804FF02009D5
:1058C000CDF8289000250B9508461A9002A8FEF7FF
:1058D00065FA08B1FBF7E7FF3848016841F48051E9
:1058E0000160006800F4805001903448103801686D
:1058F00041F001010160006800F001000190CDF865
:10590000C890339634954FF00309CDF8D4904FF0FA
:10591000050ACDF8D8A032A9DFF8A4B05846FDF7A3
:10592000FFFCCDF8C88033963497CDF8D490CDF8ED
:10593000D8A032A95846FDF7F3FC234E2148306029
:1059400025207060B560F5604FF480673761756140
:10595000B561F5614FF44030306275623046FCF756
:105960006FFF08B1FBF79FFFE667B4631548164E5B
:10597000183078363060262070604020B060F560C6
:1059800037617561B561F561C0023062756230469C
:10599000FCF756FF18B100E00BE0FBF784FFA667A9
:1059A000B463002223201146FDF79EFF2320FDF75C
:1059B0008DFF37B0BDE8F08F00300140F044025851
:1059C0000000025870040240D404002470B5002581
:1059D00000210D4B01EB410253F82240844201D1DA
:1059E00003EB8205491C0629F4DB6C6806E0A4F190
:1059F0002000018B4069FDF78DFD2468A8680068D0
:105A0000A042F4D170BD00000C00002470472DE9C5
:105A1000FF4F81B0044692461D460E9FE06B400941
:105A2000401C1FFA80F9FDF789FD80462E4694F848
:105A30008100012803D005B00220BDE8F08F029854
:105A4000002849D0BAF1000F46D0280044D094F87D
:105A50008000012844D04FF0010B84F880B005206D
:105A600084F881000020C4F88400C4F864A0A4F87D
:105A70006A50A4F868500299E165A4F86250A4F84D
:105A80006050206760672068C16821F4C021C16050
:105A90002068A0F18041B1F598311AD0A0F1804181
:105AA000B1F5605115D0A0F18041B1F5705110D021
:105AB0004FF0080A41686FF30F01294341602068E5
:105AC000016841F0010101606068B0F5800F0BD002
:105AD0000FE04FF0100AEDE705B00120BDE8F08FB0
